:100000000C94111D0C94421D0C94421D0C94421D25
:100010000C94421D0C94421D0C94421D0C94421DE4
:100020000C94421D0C94421D0C94421D0C94421DD4
:100030000C94421D0C940A9B0C94421D0C94421D7E
:100040000C94421D0C94F1E90C94421D0C94421D39
:100050000C94421D0C94421D0C946CD20C94C09ACA
:100060000C94421D0D9447000C94421D0C94421DAB
:100070000C94421D0C94421D0C94421D0C94421D84
:100080000C94421D0C94421D0C94421D0C94421D74
:100090000C94421D0C94421D0C94421D0C94421D64
:1000A0000C94421D0C94421D0C94421D0C94421D54
:1000B0000C94421D0C94421D0C94421D0C94421D44
:1000C0000C94421D0C94421D0C94421D0C94421D34
:1000D0000C94421D0C94421D0C94421D0C94421D24
:1000E0000C94421D2D991399169919991C992899C8
:1000F0001F993999229925996CEF6FEF5EEF62EFA6
:1001000068EFA6EF73EF77EF7DEF81EF85EF8BEF71
:100110008FEF93EFA6EF99EF9DEFA1EFE9F2EEF2EB
:10012000F3F2FDF207F380F311F319F321F32BF34C
:1001300035F33FF34EF358F380F362F36CF376F349
:1001400002010A010C0112010C010C010C010C014D
:100150000C010C010C010C010C010C010C010C0137
:100160000C010C010C010C010C010C010C010C0127
:100170000C010C010C010C010C010C0106010C011D
:100180000C010C010C010C010C010C010C01000113
:100190000C010C010C010C010C010C010C010C01F7
:1001A0000C010C0104010801084AD73B3BCE016E4B
:1001B00084BCBFFDC12F3D6C74319ABD56833DDABE
:1001C0003D00C77F11BED9E4BB4C3E916BAAAABECD
:1001D000000000803F05A84CCDB2D44EB93836A9F6
:1001E000020C50B9918688083CA6AAAA2ABE000033
:1001F00000803F000D94AE000D9443210D94182013
:100200000D94A8090D9499090D94EC090D94CF094A
:100210000D9494080D945E080D9497080D94FA07B8
:100220000D94F30F0D94D5094E414E494E49545942
:10023000494E46CDCCCC3D0AD7233C17B7D13877B1
:10024000CC2B329595E6241FB14F0A0000204100C7
:1002500000C84200401C4620BCBE4CCA1B0E5AAE11
:10026000C59D74434F4D4D554E49434154494F4EE2
:100270000044525952554E004552524F5253004974
:100280004E464F004543484F0047322F47332062C8
:10029000616420706172616D65746572730A0053E8
:1002A0006C6565702E2E2E00206F6620004D424C2E
:1002B0002047323920706F696E742000290A005976
:1002C000206F7574206F662072616E67652028311B
:1002D0002D00290A0058206F7574206F6620726106
:1002E0006E67652028312D004D6573682070726F30
:1002F00062696E6720646F6E652E0A0053746172C6
:1003000074206D6573682070726F62696E67207704
:10031000697468202247323920533122206669727D
:1003200073742E0A004732380A473239205332009C
:1003300053746174653A20004D657368206265648A
:10034000206C6576656C696E6720686173206E6FDE
:1003500020646174612E0A0053206F7574206F66EB
:100360002072616E67652028302D35292E0A004DD8
:1003700065736820706F696E742063616E6E6F7450
:10038000206265207265736F6C7665640A00436C49
:1003900069636B20746F20726573756D652E2E2EE8
:1003A000004E6F206D6F76652E00456E6420666985
:1003B0006C65206C6973740A00426567696E20661B
:1003C000696C65206C6973740A00286E6F20666919
:1003D0006C6529005344207072696E74696E6720E1
:1003E0006279746520004E6F7420534420707269E6
:1003F0006E74696E670A0043757272656E7420666A
:10040000696C653A200046696C652064656C6574AA
:1004100065643A0044656C6574696F6E2066616955
:100420006C65642C2046696C653A20005072696ED8
:10043000742074696D653A20006F6E2E0A006F6635
:10044000662E0A00473236204465627567200084B4
:10045000027F027802710263026F666600444542C1
:1004600055473A004B494C4C45442E20004D313104
:10047000332053006F6B00413230204F66662E00F0
:100480002C20002C2000544845524D414C5F5052C6
:100490004F54454354494F4E004155544F524550D7
:1004A0004F52545F53445F53544154555300454D8C
:1004B000455247454E43595F5041525345520043C0
:1004C0004153455F4C494748545F4252494748545D
:1004D0004E45535300544F47474C455F4C4947489E
:1004E000545300534F4654574152455F504F574560
:1004F00052004255494C445F50455243454E5400CA
:100500004C4556454C494E475F44415441005A5F63
:1005100050524F4245004155544F4C4556454C00B2
:100520005052494E545F4A4F420050524F47524535
:100530005353004155544F5245504F52545F544508
:100540004D5000564F4C554D45545249430045457A
:1005500050524F4D0053455249414C5F584F4E5FEA
:10056000584F4646004649524D574152455F4E410D
:100570004D453A4D61726C696E20627567666978A7
:100580002D312E312E782028476974687562292014
:10059000534F555243455F434F44455F55524C3A84
:1005A00068747470733A2F2F6769746875622E636C
:1005B0006F6D2F4D61726C696E4669726D776172F5
:1005C000652F4D61726C696E2050524F544F434FEE
:1005D0004C5F56455253494F4E3A312E30204D41D3
:1005E0004348494E455F545950453A4132302045C1
:1005F000585452554445525F434F554E543A31205A
:10060000555549443A63656465326132662D34312B
:1006100061322D343734382D396231322D6335351E
:100620006336326633363766660A002F2F20004D58
:1006300031343520533C696E6465783E206F7574A3
:10064000206F662072616E67652028302D31290A7F
:1006500000205400205200416363656C6572617430
:10066000696F6E3A2050003F4A206F7574206F66A4
:100670002072616E67652028302E303120746F2023
:10068000302E33290A004F666673657473206170DB
:10069000706C696564004572723A20546F6F206611
:1006A00061722100546F6F206661722066726F6DF7
:1006B000207265666572656E636520706F696E7421
:1006C0000A0020466C6F773A200000012527231886
:1006D000FFFFFFFF1F211D1CFFFFFFFF19171B1E40
:1006E000FFFFFFFFFFFF0C0409FFFFFF2E2C0CFF95
:1006F000FFFF04400AFF4120643A0020693A0020CD
:10070000703A00496E76616C696420657874727520
:100710006465720A0043290A0061626C65642028DE
:100720006D696E2074656D702000436F6C64206588
:100730007874727564657320617265200020643A74
:100740000020693A0020703A004E6F2063617365A3
:10075000206C696768740A00454550524F4D204F20
:100760004B0A00416374697665204578747275643C
:1007700065723A2000496E76616C69642065787410
:1007800072756465720A00696E206D6F76655F74BC
:100790006F282920666565645F76616C75652066E3
:1007A0006F722058593A004C656176696E67204730
:1007B0003236004732362048656174696E67204ED4
:1007C0006F7A7A6C652E004732362048656174690D
:1007D0006E67204265642E00446F6E65205072691A
:1007E0006D696E6700557365722D436F6E74726F1D
:1007F0006C6C6564205072696D650046697865644B
:10080000204C656E677468205072696D652E004DCE
:100810006573682056616C69646174696F6E2053FA
:10082000746F707065642E002C2065793D0029205E
:100830002D3E202865783D002C2073793D00204313
:100840006F6E6E656374696E672077697468207671
:100850006572746963616C206C696E6520287378B9
:100860003D002C2065793D0029202D3E202865780B
:100870003D002C2073793D0020436F6E6E656374DC
:10088000696E67207769746820686F72697A6F6E25
:1008900074616C206C696E65202873783D004C652E
:1008A0006176696E6720473236003F537065636931
:1008B0006669656420582C5920636F6F7264696E95
:1008C000617465206F7574206F6620626F756E6449
:1008D000732E0A003F285229657065617420766185
:1008E0006C7565206E6F7420706C61757369626CD5
:1008F000653B206D757374206265206174206C65A2
:1009000061737420312E0A003F5370656369666914
:100910006564206E6F7A7A6C652074656D7065729F
:100920006174757265206E6F7420706C6175736987
:10093000626C652E0A003F53706563696669656481
:100940002066696C616D656E742073697A65206ECE
:100950006F7420706C61757369626C652E0A003F5C
:10096000537065636966696564207072696D65209E
:100970006C656E677468206E6F7420706C6175733F
:1009800069626C652E0A003F53706563696669652C
:1009900064206E6F7A7A6C652073697A65206E6F59
:1009A0007420706C61757369626C652E0A003F5328
:1009B0007065636966696564205265747261637409
:1009C000696F6E204D756C7469706C696572206E0C
:1009D0006F7420706C61757369626C652E0A003FDC
:1009E00052657472616374696F6E204D756C7469C1
:1009F000706C696572206D75737420626520737008
:100A0000656369666965642E0A003F5370656369B2
:100A100066696564206C61796572206865696768DC
:100A200074206E6F7420706C61757369626C652ED2
:100A30000A003F5370656369666965642062656496
:100A40002074656D7065726174757265206E6F7467
:100A500020706C61757369626C65202834302D31AB
:100A6000343043292E0A0047323620636F6D6D61A2
:100A70006E6420737461727465642E2057616974AA
:100A8000696E6720666F722068656174657228738D
:100A9000292E0A0024F4D43050C38E20C2A240175D
:100AA000828B7011127A910D816CD90AA861E108CC
:100AB000C7586607615143061E4B5D05C145A70433
:100AC0001A411104093D9803713931034036DB02A4
:100AD00065339102D4305402802E1D02632CEE0146
:100AE000752AC501B028A001102781018F25640156
:100AF0002B244B01E0223401AC211F018D200D017C
:100B0000801FFC00841EED00971DDF00B81CD20082
:100B1000E61BC600201BBC00641AB200B219A80074
:100B20000A19A0006A189900D117910040178B008C
:100B3000B516840031167E00B31579003A1573009E
:100B4000C7146F0058146A00EE1366008813630020
:100B500025135E00C7125B006C125700151254007B
:100B6000C111510070114F0021114B00D6104900E6
:100B70008D1047004610440002104200C00F400094
:100B8000800F3E00420F3C00060F3B00CB0E3800AA
:100B9000930E37005C0E3500270E3400F30D320043
:100BA000C10D3100900D3000600D2E00320D2D0072
:100BB000050D2C00D90C2B00AE0C2900850C29004A
:100BC0005C0C2700350C27000E0C2600E80B2400D7
:100BD000C40B2400A00B23007D0B23005A0B210023
:100BE000390B2100180B2000F80A1F00D90A1E003B
:100BF000BB0A1E009D0A1D00800A1D00630A1C001E
:100C0000470A1B002C0A1B00110A1A00F7091A00D8
:100C1000DD091900C4091900AB0919009209170070
:100C20007B091800630917004C09160036091600E5
:100C3000200916000A091500F5081500E00814003F
:100C4000CC081400B8081400A4081400900813007D
:100C50007D0812006B0813005808120046081200A5
:100C600034081100230811001208110001081100B6
:100C7000F0071000E0071000D0071000C0071000B8
:100C8000B0070F00A107100091070E0083070F00A7
:100C900074070F0065070E0057070E0049070E0086
:100CA0003B070D002E070E0020070D0013070D0057
:100CB00006070D00F9060C00ED060D00E0060C001D
:100CC000D4060C00C8060C00BC060C00B0060C00D4
:100CD000A4060B0099060C008D060B0082060B0083
:100CE00077060B006C060B0061060A0057060B0026
:100CF0004C060A0042060A0038060A002E060A00C0
:100D000024060A001A060A001006090007060A004F
:100D1000FD050900F4050900EB050900E2050900DD
:100D2000D9050900D0050900C7050900BE0509005D
:100D3000B5050800AD050800A50509009C050800DB
:100D4000940508008C050800840508007C0508004F
:100D5000740508006C050700650508005D050700BF
:100D6000560508004E050700470507004005080026
:100D700038050700310507002A050700230507008D
:100D80001C050600160507000F05070008050600EC
:100D900002050700FB040600F5040700EE04060048
:100DA000E8040600E2040700DB040600D5040600A0
:100DB000CF040600C9040600C3040600BD040600F3
:100DC000B7040600B1040500AC040600A604060042
:100DD000A00405009B04060095040500900406008D
:100DE0008A04050085040500800406007A040500D5
:100DF00075040500700405006B0405006604050019
:100E0000610405005C040500570405005204050058
:100E10004D04050048040500430405003E04040099
:100E20003A04050035040500300404002C040500D4
:100E300027040400230405001E0404001A0404000F
:100E400016040500110404000D0404000904050043
:100E50000404040000040400FC030400F80304007C
:100E6000F4030400F0030400EC030400E8030400AE
:100E7000E4030400E0030400DC030400D8030400DE
:100E8000D4030400D0030400CC030400C80303000F
:100E9000C503030024F404D9201BC40C5C0E980481
:100EA000C4095F0265077101F405F900FB04B30092
:100EB00048048700C1036900580355000303450037
:100EC000BE023A008402310053022A0029022500A2
:100ED00004022000E4011C00C8011900AF01170042
:100EE00098011400840113007101100061011000C9
:100EF00051010E0043010D0036010B002B010B00C8
:100F000020010B00150109000C0109000301080074
:100F1000FB000800F3000800EB000700E4000600F7
:100F2000DE000600D8000600D2000600CC00050056
:100F3000C7000500C2000500BD000400B9000400A0
:100F4000B5000400B1000400AD000400A9000400D5
:100F5000A5000300A20003009F0004009B00030003
:100F60009800030095000200930003009000030026
:100F70008D0002008B000300880002008600020042
:100F800084000300810002007F0002007D00020057
:100F90007B00020079000200770001007600020069
:100FA0007400020072000100710002006F00020074
:100FB0006D0001006C0002006A000100690002007F
:100FC0006700010066000100650001006400020086
:100FD0006200010061000100600001005F0002008A
:100FE0005D0001005C0001005B0001005A0001008F
:100FF000590001005800010057000100560001008F
:10100000550001005400010053000000530001008E
:101010005200010051000100500001004F0001008A
:101020004E0000004E0001004D0001004C00010088
:101030004B0000004B0001004A0001004900010084
:101040004800000048000100470001004600000081
:101050004600010045000000450001004400010079
:101060004300000043000100420000004200010074
:101070004100000041000100400001003F0000006D
:101080003F0001003E0000003E0001003D00000066
:101090003D0001003C0000003C0000003C0001005D
:1010A0003B0000003B0001003A0000003A00010054
:1010B000390000003900010038000000380000004D
:1010C0003800010037000000370001003600000042
:1010D0003600000036000100350000003500000039
:1010E000350001003400000034000000340001002D
:1010F0003300000033000000330001003200000024
:101100003200000032000100310000003100000018
:10111000310001003000000030000000300001000C
:101120002F0000002F0000002F0000002F00010002
:101130002E0000002E0000002E0001002D000000F7
:101140002D0000002D0000002D0001002C000000EB
:101150002C0000002C0000002C0001002B000000DF
:101160002B0000002B0000002B0001002A000000D3
:101170002A0000002A0000002A00010029000000C7
:1011800029000000290000002900000029000100BA
:1011900028000000280000002800000028000000AF
:1011A00028000100270000002700000027000000A1
:1011B0002700000027000100260000002600000094
:1011C0002600000026000000260001002500000087
:1011D000250000002500000025000000250000007B
:1011E000250001002400000024000000240000006D
:1011F0002400000024000100230000002300000060
:101200002300000023000000230000002300000052
:101210002300010022000000220000002200000044
:101220002200000022000000220001002100000036
:10123000210000002100000021000000210000002A
:10124000210000002100010020000000200000001B
:10125000200000002000000020000000200000000E
:1012600020000000200001001F0000001F000000FF
:101270001F0000001F0000001F0000001F000000F2
:101280001F0001001E0000001E0000001E000000E4
:101290001E000000393000003325000087190000CF
:1012A000B00F0000DB080000BD0400007402000065
:1012B0003F01000050726F7465637465642050696B
:1012C0006E0A0046696C616D656E742075736564A5
:1012D0003A200053746174733A20002C204C6F6ED6
:1012E00067657374206A6F623A2000546F74616C92
:1012F0002074696D653A200053746174733A20005C
:101300002C204661696C65643A20002C2046696E89
:1013100069736865643A20005072696E74733A208C
:101320000053746174733A200020573A00452043FB
:101330006F6F6C696E672E2E2E00452048656174B4
:10134000696E672E2E2E0020573A00426564206396
:101350006F6F6C696E672E2E2E0042656420686583
:101360006174696E672E2E2E00205A3A0020593A79
:101370000020436F756E7420583A0020453A0020D3
:101380005A3A0020593A00583A003A004361703AFC
:1013900000205A00205900580020204D61783A2042
:1013A00000205A00205900580020204D696E3A2034
:1013B000004F6E20004F666600536F667420656EA6
:1013C0006473746F70733A20004B6420002364656B
:1013D00066696E652044454641554C545F004B6933
:1013E000200023646566696E652044454641554C7E
:1013F000545F004B70200023646566696E6520446D
:10140000454641554C545F00504944204175746F26
:1014100074756E652066696E697368656421205015
:10142000757420746865206C617374204B702C2077
:101430004B6920616E64204B6420636F6E7374612E
:101440006E74732066726F6D2062656C6F772069B1
:101450006E746F20436F6E66696775726174696F31
:101460006E2E680A00504944204175746F74756E81
:1014700065206661696C6564212074696D656F75AE
:10148000740A00453120544845524D414C20525574
:101490004E415741590042454420544845524D4120
:1014A0004C2052554E4157415900546865726D6148
:1014B0006C2052756E617761790045312048656115
:1014C00074696E67206661696C65640042656420BA
:1014D00068656174696E67206661696C656400485F
:1014E000656174696E67206661696C656400504966
:1014F00044204175746F74756E65206661696C6512
:1015000064212054656D7065726174757265207414
:101510006F6F20686967680A00204B643A200020DA
:101520004B693A2000204B703A20000A20436C613E
:101530007373696320504944200A002054753A208F
:1015400000204B753A2000206D61783A2000206D14
:10155000696E3A200020643A200020626961733A83
:101560002000504944204175746F74756E65206683
:1015700061696C6564212054656D70657261747574
:10158000726520746F6F20686967680A005049446B
:10159000204175746F74756E652073746172740A7E
:1015A00000504944204175746F74756E6520666102
:1015B000696C656421204261642065787472756489
:1015C0006572206E756D6265720A0025753A253068
:1015D000327500253032753A253032750025756434
:1015E00020253032753A2530327500202020202009
:1015F00020005A0059002020202000580009200017
:101600000000000000000000000000003FFFF000AC
:101610000000000000000000000000380070000022
:101620000000000000000000000030FC300000005E
:1016300000000000000000000020FC10000000007E
:1016400000000000000000002078100000000000F2
:10165000000000000000002030100000000000002A
:101660000000000000002C00D03FC000000000007F
:1016700000002082002E31D07FE00000000000003A
:10168000001041002F7BD07FE00000000000000030
:101690001041002F7BD07FE0000000000000002000
:1016A00082002E31D03FC000000000000000410445
:1016B000002C00D03FC000000000000000820800A5
:1016C0002030107FE00000000000000082080020B1
:1016D00078107FE00000000000000041040020FCC2
:1016E000107FE00000000000000020820030FC308D
:1016F0001F80000000000000000000003800700F94
:101700000000000000000000FFFFC03FFFF00600E7
:1017100000000000000000FFFFC00000000000000B
:101720000000000000000000003FFFF0000000008B
:101730000000000000000000380070000000000001
:1017400000000000000000318630000000000000B2
:1017500000000000000023871000000000000000CF
:10176000000000000027879000000000000000003B
:10177000000000002F87D0000000000000000000E3
:101780000000002F03D03FC0000000000000002038
:1017900082002030107FE0000000000000001041B7
:1017A000002078107FE000000000000000104100E1
:1017B0002078107FE0000000000000002082002060
:1017C00030103FC0000000000000004104002F0363
:1017D000D03FC0000000000000008208002F87D02A
:1017E0007FE0000000000000008208002787907F53
:1017F000E0000000000000004104002387107FE0AB
:10180000000000000000002082003186301F8000B0
:101810000000000000000000003800700F00000011
:101820000000000000FFFFC03FFFF00600000000C6
:1018300000000000FFFFC000000041323020526570
:101840006164792E005072696E74696E672E2E2E57
:10185000005072696E742070617573656400436135
:1018600072642072656D6F766564004361726420F6
:10187000696E7365727465640000060900FE0701F5
:10188000920321207FFF07FF07FF000000060000F2
:10189000010707060200808080808000800302022A
:1018A000060105A0A00507070600005050F850F8F3
:1018B00050500507070600002078A07028F020058A
:1018C0000707060000C0C810204098180507070643
:1018D00000006090A040A89068020303060104C0C5
:1018E00040800307070601002040808080402003DD
:1018F00007070601008040202020408005050506DE
:10190000000120A870A8200505050600012020F888
:1019100020200203030602FFC040800501010600EB
:1019200003F8020202060200C0C005050506000118
:101930000810204080050707060000708888888806
:10194000887003070706010040C040404040E005A2
:101950000707060000708808708080F805070706F2
:101960000000F81020100808F00507070600001016
:10197000305090F81010050707060000F880F008B6
:10198000088870050707060000708080F08888705E
:10199000050707060000F80810202020200507078B
:1019A00006000070888870888870050707060000A8
:1019B00070888878080870020505060200C0C0001B
:1019C000C0C00206060602FFC0C000C04080040777
:1019D0000706000010204080402010050303060089
:1019E00002F800F80407070601008040201020409C
:1019F00080050707060000708808102000200507F2
:101A00000706000070880868A8A870050707060088
:101A100000708888F8888888050707060000F08825
:101A200088F08888F00507070600007088808080AD
:101A30008870050707060000F08888888888F00508
:101A40000707060000F88080F08080F80507070689
:101A50000000F88080F08080800507070600007095
:101A60008880B8888870050707060000888888F88D
:101A70008888880107070602008080808080808037
:101A800005070706000038101010109060050707C2
:101A90000600008890A0C0A09088050707060000F7
:101AA000808080808080F805070706000088D8A81D
:101AB000888888880507070600008888C8A898884D
:101AC00088050707060000708888888888700507E1
:101AD00007060000F08888F0808080050707060070
:101AE0000070888888A89068050707060000F088BD
:101AF00088F0A090880507070600007880807008AD
:101B000008F0050707060000F82020202020200507
:101B100007070600008888888888887005070706F8
:101B200000008888888888502005070706000088FC
:101B300088888888A85005070706000088885020F4
:101B400050888805070706000088888850202020D4
:101B5000050707060000F80810204080F803070773
:101B6000060100E08080808080E005050506000118
:101B70008040201008030707060100E020202020F5
:101B800020E005030306000420508805010106003B
:101B900000F8020202060205804005050506000065
:101BA00070087888780507070600008080B0C8882C
:101BB00088F005050506000070808088700507071D
:101BC0000600000808689888887805050506000062
:101BD0007088F880700507070600003048E0404034
:101BE00040400506060600FF7088887808700507E3
:101BF000070600008080B0C88888880107070602B1
:101C000000800080808080800308080601FF20009B
:101C100020202020A040040707060000808090A01C
:101C2000C0A090030707060100C04040404040E0CC
:101C3000050505060000D0A8A8A8A805050506000A
:101C400000B0C88888880505050600007088888867
:101C5000700506060600FFF08888F08080050606FD
:101C60000600FF788888780808050505060000B09A
:101C7000C880808005050506000070807008F004AB
:101C800007070600004040E04040403005050506DB
:101C900000008888889868050505060000888888FF
:101CA00050200505050600008888A8A850050505F0
:101CB00006000088502050880506060600FF888828
:101CC00088780870050505060000F8102040F80324
:101CD000070706010020404080404020010707061A
:101CE00002008080808080808003070706010080DA
:101CF000404020404080050202060002689000003B
:101D0000000600005072696E742061626F72746523
:101D100064005072696E742066726F6D20534400C7
:101D200053746F70207072696E7400526573756DB4
:101D300065207072696E74004E6F20534420636199
:101D40007264005061757365207072696E7400432F
:101D50006F6E74726F6C00507265706172650054C2
:101D6000756E6500496E666F2073637265656E00FF
:101D70004261627973746570205A004368616E67CE
:101D8000652066696C616D656E74004368616E679D
:101D9000652066696C616D656E74004D363030206B
:101DA0004230004261627973746570205A00466C5B
:101DB0006F7700466C6F7700466C6F770046616EF8
:101DC0002073706565640046616E2073706565649C
:101DD0000046616E20737065656400426564004270
:101DE000656400426564004E6F7A7A6C65004E6FE0
:101DF0007A7A6C65004E6F7A7A6C6500466164652C
:101E000020486569676874004661646520486569B3
:101E10006768740046616465204865696768740096
:101E2000426564205A00426564205A00537065651B
:101E300064005370656564005370656564004D61AE
:101E4000696E005072656865617420504C41204590
:101E50006E64005072656865617420504C41204288
:101E60006564005072656865617420504C41005093
:101E700072657061726500507265686561742041B9
:101E8000425320456E64005072656865617420415C
:101E90004253204265640050726568656174204158
:101EA00042530050726570617265004C6576656CD6
:101EB000696E6720446F6E6521004D6F7665205A0C
:101EC0000047323920533200457874727564657268
:101ED000004D6F7665205A004D6F76652059004D94
:101EE0006F76652058005072657061726500496EAA
:101EF000697469616C697A6520454550524F4D009F
:101F0000436F6E74726F6C00526573746F726520EC
:101F10006661696C73616665004C6F61642073650E
:101F20007474696E677300496E697469616C697A6B
:101F30006520454550524F4D0053746F72652073B4
:101F4000657474696E67730046696C616D656E7463
:101F5000004D6F74696F6E0054656D7065726174C9
:101F6000757265004D61696E004D33303320553117
:101F700020452569205325690050726568656174A4
:101F80002041425320636F6E660050726568656140
:101F90007420504C4120636F6E66005049442041CC
:101FA00075746F74756E6500504944204175746F87
:101FB00074756E6500504944204175746F74756E78
:101FC00065005049442D44005049442D4400504977
:101FD000442D49005049442D49005049442D50009A
:101FE0005049442D500020082046616374002008A9
:101FF0002046616374002008204D6178002008208D
:102000004D6178002008204D6178002008204D693E
:102010006E002008204D696E002008204D696E007A
:102020004F6666004F6E20004175746F74656D7069
:102030000046616E2073706565640046616E2073B2
:10204000706565640046616E20737065656400426A
:1020500065640042656400426564004E6F7A7A6C84
:1020600065004E6F7A7A6C65004E6F7A7A6C650007
:10207000436F6E74726F6C0053746F72652073657A
:102080007474696E6773004265640042656400425F
:102090006564004E6F7A7A6C65004E6F7A7A6C6573
:1020A000004E6F7A7A6C650046616E2073706565CC
:1020B000640046616E2073706565640046616E2041
:1020C00073706565640054656D70657261747572D6
:1020D000650020746F6F206C6F6E67206578747276
:1020E0007573696F6E2070726576656E7465640ACB
:1020F0000020636F6C6420657874727573696F6E0D
:102100002070726576656E7465640A0020204E6FDB
:102110007A7A6C653A2000200066696C616D656EA4
:102120007420756E6C6F6164005761697420666F0E
:10213000720020204E6F7A7A6C653A2000200050A1
:102140006C6561736520776169742E2E2E00486579
:102150006174696E67206E6F7A7A6C650020204E1C
:102160006F7A7A6C653A2000200068656174206E91
:102170006F7A7A6C652E0050726573732062757485
:10218000746F6E20746F0020204E6F7A7A6C653AFF
:102190002000746F20636F6E74696E75652E2E2E2D
:1021A00000616E6420707265737320627574746F61
:1021B0006E00496E736572742066696C616D656E40
:1021C000740020204E6F7A7A6C653A2000200066F9
:1021D000696C616D656E74206C6F61640057616934
:1021E0007420666F720020204E6F7A7A6C653A20F8
:1021F00000200066696C616D656E74207075726791
:1022000065005761697420666F7200746F20726593
:1022100073756D65005761697420666F7220707206
:10222000696E74004D3234004D32332025730055F1
:102230006E6B6E6F776E20636F6D6D616E643A20AA
:102240002200486F74656E6420746F6F20636F6C3A
:10225000640A00486F6D6520257325732573206619
:1022600069727374002066697273740A005A0059A7
:10227000005800486F6D652000534420636172640C
:10228000206F6B0A006F70656E526F6F742066610D
:10229000696C65640A00766F6C756D652E696E6990
:1022A00074206661696C65640A00534420696E6934
:1022B00074206661696C0A0057726974696E6720E0
:1022C000746F2066696C653A20006F70656E2066D9
:1022D00061696C65642C2046696C653A20006F70FA
:1022E000656E206661696C65642C2046696C653A90
:1022F000200046696C652073656C65637465640ACB
:10230000002053697A653A200046696C65206F7039
:10231000656E65643A20002066696C653A20006449
:102320006F696E67006672657368004E6F77200094
:10233000454E4420535542524F5554494E450A008C
:102340002220706F73002220706172656E743A22D1
:1023500000535542524F5554494E452043414C4C31
:10236000207461726765743A22004B494C4C4544B5
:102370002E2000747279696E6720746F2063616C1F
:102380006C207375622D67636F64652066696C6588
:1023900073207769746820746F6F206D616E792087
:1023A0006C6576656C732E204D4158206C657665A2
:1023B0006C2069733A004572726F723A00021FFF17
:1023C000FFFFFFFFFF600000000001FF4000000072
:1023D0000000FF8000000000007F83CF00000C3071
:1023E0003F87FF80000C301F867980000C000F8C27
:1023F00030C7838C30E78C30CFC7CC31F38C30DCE6
:10240000ECEC33B98C30D86C6C33198C30D06C0C4C
:1024100033198C30D86C0C33198C30DC6C0E3B19B2
:102420008C30CF7C079F198C30C77C038F194000FC
:102430000000000002600000000000061FFFFFFF18
:10244000FFFFF82020506C616E6E65724275666603
:10245000657242797465733A200020467265652082
:102460004D656D6F72793A2000436F6D70696C65D0
:10247000643A2041756720323820323031390A0001
:10248000207C20417574686F723A20286E6F6E65EB
:102490002C2064656661756C7420636F6E66696775
:1024A000290A00323031382D30372D333100204C9D
:1024B00061737420557064617465643A20006275BC
:1024C000676669782D312E312E780A004D61726C65
:1024D000696E0020536F6674776172652052657370
:1024E00065740A00205761746368646F67205265E1
:1024F0007365740A002042726F776E206F757420C6
:1025000052657365740A002045787465726E616C5B
:102510002052657365740A00506F77657255700AB2
:102520000073746172740A006175746F25692E6797
:10253000006572726F722077726974696E672074B9
:102540006F2066696C650A00456E6473746F707302
:1025500020256320256320256320256300205A3A27
:102560000020593A0020583A00656E6473746F7009
:1025700073206869743A2000446F6E652073617639
:10258000696E672066696C652E0A004D3239004E0F
:1025900065787420506F696E74002569202F20259E
:1025A0007500473239205331004732392053320009
:1025B000436C69636B20746F20426567696E0048E5
:1025C0006F6D696E672058595A004732380053744E
:1025D0006F72652073657474696E6773004C6F6108
:1025E000642073657474696E677300426564205A71
:1025F00000426564205A0046616465204865696749
:1026000068740046616465204865696768740046BF
:1026100061646520486569676874004F6666004FAD
:102620006E2000426564204C6576656C696E6700BB
:102630004C6576656C2062656400507265706172ED
:1026400065004D3432380050726568656174205001
:102650004C4100436F6F6C646F776E005072656819
:1026600065617420414253004368616E676520666E
:10267000696C616D656E74004368616E67652066A4
:10268000696C616D656E74004D36303020423000EB
:1026900044697361626C65207374657070657273F0
:1026A000004D38340053657420686F6D65206F6687
:1026B000667365747300426564204C6576656C6969
:1026C0006E6700486F6D65205A00473238205A0007
:1026D000486F6D65205900473238205900486F6DAA
:1026E000652058004732382058004175746F2068C3
:1026F0006F6D6500473238004D6F766520617869EF
:1027000073004D61696E004D6F76652058004D6F06
:1027100076652059004D6F7665205A0045787472B1
:1027200075646572004D6F766520302E316D6D00D9
:102730004D6F766520316D6D004D6F7665203130BF
:102740006D6D004D6F766520617869730045787412
:102750007275646572004D6F7665205A004D6F7614
:10276000652059004D6F7665205800454550524F01
:102770004D206461746173697A65206572726F724D
:102780002E0A00290A002062797465733B20637267
:1027900063200053657474696E67732053746F729D
:1027A0006564202800290A002062797465733B2043
:1027B00063726320002073746F72656420736574A4
:1027C00074696E67732072657472696576656420DA
:1027D0002800202863616C63756C6174656429212D
:1027E0000A0020213D2000454550524F4D204352C4
:1027F00043206D69736D61746368202D20287374A4
:102800006F7265642920002053697A653A20004977
:102810006E6465783A2000204D61726C696E3D5699
:102820003535290A0028454550524F4D3D00454554
:1028300050524F4D2076657273696F6E206D6973CB
:102840006D6174636820004B494C4C45442E200058
:1028500053544F505045442E20005072696E746599
:10286000722073746F707065642064756520746F76
:10287000206572726F72732E2046697820746865C5
:10288000206572726F7220616E6420757365204DD1
:1028900039393920746F20726573746172742E2017
:1028A0002854656D70657261747572652069732056
:1028B00072657365742E2053657420697420616697
:1028C0007465722072657374617274696E67290A27
:1028D000004E6F20436865636B73756D2077697474
:1028E00068206C696E65206E756D6265722C204C77
:1028F000617374204C696E653A20004E6F20436806
:1029000065636B73756D2077697468206C696E659B
:10291000206E756D6265722C204C617374204C6959
:102920006E653A2000636865636B73756D206D6931
:10293000736D617463682C204C617374204C696EF4
:10294000653A20004C696E65204E756D6265722097
:102950006973206E6F74204C617374204C696E65CE
:10296000204E756D6265722B312C204C6173742082
:102970004C696E653A20004D313130004D333100E5
:1029800053442072656164206572726F720A00445C
:102990006F6E65207072696E74696E672066696C0F
:1029A000650A0020496E76616C69642065787472EE
:1029B000756465722000000080C1000000C1000045
:1029C00000000000704300007A4300005C43486F41
:1029D0006D696E67206661696C656400486F6D653E
:1029E0002058592066697273740A00486F6D65201B
:1029F000585920666972737400206E6F7420656E7A
:102A000074657265642E0A007C3C3E5E2B3D3F2F50
:102A10005B5D3B2C2A225C005654726176206D6906
:102A20006E005654726176206D696E005654726164
:102A300076206D696E00566D696E00566D696E0088
:102A4000566D696E00566D6178204500566D61784F
:102A5000204500566D6178204500566D6178205AFA
:102A600000566D6178205A00566D6178205A0056E4
:102A70006D6178205900566D6178205900566D615E
:102A800078205900566D6178205800566D61782085
:102A90005800566D61782058004D6F74696F6E0054
:102AA000416D6178204500416D6178204500416DA0
:102AB0006178205A00416D6178205A00416D61783B
:102AC000205900416D6178205900416D617820588E
:102AD00000416D6178205800412D74726176656CFB
:102AE00000412D74726176656C00412D72657472BF
:102AF00061637400412D7265747261637400416397
:102B000063656C00416363656C004D6F74696F6E43
:102B1000004A756E6374696F6E20446576004A756D
:102B20006E6374696F6E20446576004D6F74696FD3
:102B30006E004573746570732F6D6D004573746519
:102B400070732F6D6D005A73746570732F6D6D0007
:102B50005A73746570732F6D6D005973746570735B
:102B60002F6D6D005973746570732F6D6D00587300
:102B7000746570732F6D6D005873746570732F6D6D
:102B80006D004D6F74696F6E004F66660A00466196
:102B90006465204865696768742000426564204C5C
:102BA0006576656C696E6720004661696C656420B6
:102BB000746F20656E61626C6520426564204C65AF
:102BC00076656C696E670A004D65736820426564BE
:102BD000204C6576656C20646174613A0A004D652D
:102BE000736820706F696E742063616E6E6F7420FD
:102BF0006265207265736F6C7665640A004D3432CD
:102C00003120696E636F72726563742070617261E6
:102C10006D657465722075736167650A004D3630A5
:102C2000303A20546F6F20636F6C6400486F746596
:102C30006E6420746F6F20636F6C640A00496E735A
:102C40006572742066696C616D656E7420616E6476
:102C500020707265737320627574746F6E0A005011
:102C60007265737320627574746F6E20746F206860
:102C7000656174206E6F7A7A6C650A00496E7365BF
:102C800072742066696C616D656E7420616E64207B
:102C9000707265737320627574746F6E20286F7222
:102CA000204D313038290A00496E736572742066F0
:102CB000696C616D656E7420616E642070726573FD
:102CC0007320627574746F6E20286F72204D3130DE
:102CD00038290A0070012C0190012701B00122015E
:102CE000C0011D01F00118011002130130020E0194
:102CF0006002090190020401C002FF000003FA0013
:102D00004003F5008003F000D003EB002004E60050
:102D10007004E100E004DC004005D700C005D200EB
:102D20004006CD00D006C8008007C3003008BE00B2
:102D3000F008B900C009B400B00AAF00B00BAA0097
:102D4000D00CA500000EA000500F9B00C0109600F4
:102D50005012910000148C00C0158700B01782003B
:102D6000B0197D00D01B7800001E730040206E005B
:102D700090226900F024640040275F0090295A00E7
:102D8000E02B5500102E500020304B001032460032
:102D9000E033410090353C00103737007038320086
:102DA000A0392D00B03A2800A03B2300603C1E0053
:102DB000103D1900903D1400103E0F00703E0A00B7
:102DC000C03E0500003F0000403FFBFF803FF6FF94
:102DD000C03FF1FF453120544845524D414C2052EF
:102DE000554E415741590042454420544845524DA3
:102DF000414C2052554E4157415900546865726DFF
:102E0000616C2052756E61776179004531204572A1
:102E1000723A204D415854454D50004572723A2047
:102E20004D415854454D5020424544004D41585461
:102E3000454D50207472696767657265640045315D
:102E4000204572723A204D494E54454D500045720E
:102E5000723A204D494E54454D5020424544004D54
:102E6000494E54454D5020747269676765726564B8
:102E7000004D383420582059205A204500202F007A
:102E80002042403A0020403A006F70656E20666133
:102E9000696C65642C2046696C653A200043616E5C
:102EA0006E6F74206F70656E207375626469722036
:102EB000006563686F3A0053746570732F6D6D0021
:102EC0004A65726B00416363656C65726174696F1A
:102ED0006E0056656C6F6369747900436F6E74722F
:102EE0006F6C004C6F6164206D6D004C6F616420ED
:102EF0006D6D004C6F6164206D6D00556E6C6F617F
:102F000064206D6D00556E6C6F6164206D6D0055B1
:102F10006E6C6F6164206D6D0046696C2E20446993
:102F2000612E0046696C2E204469612E004F666652
:102F3000004F6E20004520696E206D6D3300436F99
:102F40006E74726F6C0043616E6E6F7420656E7488
:102F50006572207375626469723A2000022E2E0039
:102F60004D61696E004D37303220542564004D3676
:102F7000303020423020542564004D373032203B21
:102F80002564004D37303120542564004368616E5C
:102F900067652066696C616D656E74005072656866
:102FA0006561742041425300507265686561742008
:102FB000504C41004368616E67652066696C616DC5
:102FC000656E74005052494E54205041555345444B
:102FD00000554E4C4F41442046494C414D454E54BE
:102FE000004C4F41442046494C414D454E54005001
:102FF00075726765206D6F726500436F6E74696EE0
:10300000756500524553554D45204F5054494F4E1C
:10301000533A0020204E6F7A7A6C653A200063683C
:10302000616E6765006F66207468652066696C6113
:103030006D656E74005761697420666F72207374D9
:1030400061727400627573793A207061757365649A
:1030500020666F7220696E7075740A0062757379EC
:103060003A2070617573656420666F7220757365B0
:10307000720A00627573793A2070726F63657373B8
:10308000696E670A004B494C4C45442E20004B4961
:103090004C4C2063617573656420627920746F6F96
:1030A000206D75636820696E61637469766520744C
:1030B000696D65202D2063757272656E7420636F73
:1030C0006D6D616E643A20004D36303000506C6595
:1030D000617365207265736574005052494E5445A2
:1030E000522048414C544544005072696E746572D8
:1030F0002068616C7465642E206B696C6C282920D3
:1031000063616C6C6564210A00656E717565756537
:10311000696E67202200000080C1000000C100002D
:1031200000000000C8420000C8420000A0410000AA
:1031300000005761726E696E673A20486F6D696E64
:10314000672042756D702044697669736F72203C08
:1031500020310A000202040000A0400000A040004C
:10316000000040000080430000814300005C43FFFA
:10317000FFFFFFFDFCFAF8F6F4F2F0EEECEAE9E707
:10318000E5E3E1E0DEDCDAD9D7D5D4D2D0CFCDCBC0
:10319000CAC8C7C5C3C2C0BFBDBCBAB9B7B6B4B34D
:1031A000B2B0AFADACAAA9A8A6A5A4A2A1A09E9DAD
:1031B0009C9A99989795949392908F8E8D8B8A89EB
:1031C00088878684838281807F7E7D7B7A79787709
:1031D000767574737271706F6E6D6C6B6A69686707
:1031E000666564636261605F5E5D5C5B5A595858F6
:1031F0005756555453525150504F4E4D4C4B4A4ACE
:103200004948474646454443424241403F3E3E3D91
:103210003C3B3B3A39383837363535343332323146
:1032200030302F2E2E2D2C2B2B2A292928272726EC
:10323000252524232322212120201F1E1E1D1C1C86
:103240001B1B1A1919181817161615151413131213
:10325000121111100F0F0E0E0D0D0C0C0B0A0A0996
:10326000090808070706060505040403030202010E
:10327000000000002100240027002A002D0030005B
:10328000330001010000040107010A0100002200CF
:10329000250028002B002E00310034000201000020
:1032A000050108010B010000200023002600290071
:1032B0002C002F003200000100000301060109016B
:1032C00005050505070508080808020202020A0AA2
:1032D00008080404040401010101010101010303C0
:1032E000030303030303040707070C0C0C0C0C0C6B
:1032F0000C0C0202020206060606060606060B0B68
:103300000B0B0B0B0B0B01021020200808102040A8
:103310001020408002010201080402010102040899
:103320001020408080402010080402018004020127
:103330008040201008040201080402010102040870
:1033400010204080010204081020408000000A0B79
:1033500002090C0D0E080703040100000000000024
:10336000000000000000000000000000000000005D
:10337000000000000000000012111000000000001A
:10338000000000000000000000000000000000003D
:10339000000048617264636F64656420446566611F
:1033A000756C742053657474696E6773204C6F611B
:1033B0006465640A00B80B0000B80B00004B000005
:1033C00000881300000000C8430000C8430000C884
:1033D00043000034429A99A0429A99A1420000C841
:1033E000430000BA4220286D6D290020204D363060
:1033F0003320002055004C0046696C616D656E7489
:10340000206C6F61642F756E6C6F6164206C656EEB
:10341000677468733A0A0020440020490020204D58
:1034200033303420500020440020490020204D3308
:1034300030312050005049442073657474696E67C0
:10344000733A0A0020460020420020480020204D08
:103450003134352053004D6174657269616C2068A8
:10346000656174757020706172616D6574657273E9
:103470003A0A00205A0020590020204732392053B0
:1034800033205800205A0020204D34323020530081
:103490004D65736820426564204C6576656C696E85
:1034A000673A0A00205A0020590020204D32303659
:1034B000205800486F6D65206F66667365743A0A20
:1034C00000204A0020540020530020204D32303587
:1034D000205100204A3C6A756E635F6465763E0049
:1034E000416476616E6365643A20513C6D696E5F3C
:1034F0007365676D656E745F74696D655F75733E46
:1035000020533C6D696E5F66656564726174653EEB
:1035100020543C6D696E5F74726176656C5F6665A0
:103520006564726174653E002054002052002020C2
:103530004D323034205000416363656C65726174B4
:10354000696F6E2028756E6974732F7332293A2063
:10355000503C7072696E745F616363656C3E2052AB
:103560003C726574726163745F616363656C3E2075
:10357000543C74726176656C5F616363656C3E0A8E
:1035800000204500205A0020590020204D323031C3
:103590002058004D6178696D756D20416363656CDD
:1035A00065726174696F6E2028756E6974732F730C
:1035B00032293A0A00204500205A002059002020D4
:1035C0004D3230332058004D6178696D756D20663D
:1035D00065656472617465732028756E6974732FF4
:1035E00073293A0A00204500205A00205900202063
:1035F0004D39322058005374657073207065722005
:10360000756E69743A0A0020204D32303020443003
:103610000A0020204D32303020440020446973617C
:10362000626C65640A0046696C616D656E74207336
:10363000657474696E67733A0020204D3134392007
:1036400043203B20556E69747320696E2043656C7E
:10365000736975730A002020473231202020203BF7
:10366000002569730025696D202569730025696847
:103670002025696D20256973002569642025696806
:103680002025696D202569730025697920256964E5
:10369000202569682025696D2025697300545249E9
:1036A000474745524544006F70656E003A200066FA
:1036B000696C616D656E74007A5F6D696E00795F2B
:1036C0006D696E00785F6D696E005265706F72741F
:1036D000696E6720656E6473746F702073746174B3
:1036E00075730A000A4D6561737572656420706FA9
:1036F000696E74733A0A005A206F66667365743A8D
:1037000020004E756D20582C593A20352C350A0072
:103710000000000100000001000080005555550028
:103720000000400033333300AAAA2A004992240043
:1037300000002000C7711C0099991900D14517009D
:10374000555515003BB11300244912001111110009
:10375000000010000F0F0F00E3380E0043790D003A
:10376000CCCC0C00C3300C00E8A20B0064210B0091
:10377000AAAA0A00703D0A009DD80900427B0900F0
:1037800092240900DCD30800888808001042080051
:1037900000000800F0C10700878707007550070088
:1037A000711C07003EEB0600A1BC060069900600F4
:1037B00066660600703E06006118060017F40500F4
:1037C00074D105005BB00500B2900500627205007F
:1037D0005555050078390500B81E0500050505009A
:1037E0004EEC040087D40400A1BD040090A704009F
:1037F00049920400C17D0400EE690400C75604002C
:10380000444404005C320400082104004110040018
:10381000000004003FF00300F8E0030026D203009C
:10382000C3C30300CCB503003AA803000A9B0300FE
:10383000388E0300C08103009F750300D069030028
:10384000505E03001D53030034480300913D030004
:103850003333030016290300381F030097150300B4
:10386000300C0300030303000BFA020049F10200CD
:10387000BAE802005CE002002DD802002DD0020060
:1038800059C80200B0C0020031B90200DAB102002A
:10389000AAAA0200A0A30200BC9C0200FA950200A2
:1038A0005C8F0200DF88020082820200457C0200F9
:1038B0002776020027700200436A02007C6402003F
:1038C000D05E02003F590200C85302000006090002
:1038D000FE000000000001090008FE0000050808C5
:1038E00006000040F0C8888898781005080806008F
:1038F00000C0F88888888888F8050505060001203A
:1039000030F830200508080600002070F82020203C
:1039100020E00509090600FF2070A8A8B888887073
:10392000200509090600FFE080C0B0A8283028283B
:103930000509090600FFF8A88888888888A8F8057E
:103940000A0A0600FE205050505088A8A88870032C
:10395000030306000340A0404572726F7220777225
:103960006974696E6720746F20454550524F4D2130
:103970000A00526573656E643A20006F6B00207414
:103980006F6F206C6F6E6720657874727573696FE6
:103990006E2070726576656E7465640A0020636FD0
:1039A0006C6420657874727573696F6E20707265CF
:1039B00076656E7465640A006265640A002C207383
:1039C000797374656D2073746F707065642120481D
:1039D00065617465725F49443A20004265642068FD
:1039E000656174696E67206661696C65640048652D
:1039F0006174696E67206661696C65640045312099
:103A000048656174696E67206661696C6564004829
:103A1000656174696E67206661696C656400FE00AB
:103A2000FC0011241FBECFEFD1E2DEBFCDBF00E00E
:103A30000CBF13E0A0E0B2E0EEE6FFE502E00BBF52
:103A400002C007900D92A638B107D9F726E1A6E883
:103A5000B3E001C01D92AB3AB207E1F71DE1C0E14E
:103A6000DDE100E006C021970109802FFE010F94DF
:103A7000082FCF30D10780E00807A9F70F942A1B41
:103A80000D94A62F0C9400002F923F924F925F92BC
:103A90006F927F928F929F92AF92BF92CF92DF925E
:103AA000EF92FF920F931F93CF93DF93CDB7DEB7C3
:103AB000C154D1090FB6F894DEBF0FBECDBF21E0CF
:103AC0002093CB0D8091BB158D3409F469C58435E5
:103AD00011F40C94BC30873411F00C9408318091AF
:103AE000B9159091BA158B31910509F40EC2A4F461
:103AF0008430910534F48230910594F597FF29C004
:103B00004BC58430910509F4C1C14A9709F044C5F9
:103B10000E949F350C940A318A32910509F431C410
:103B200044F48C31910509F420C24D9709F422C266
:103B300033C58B35910509F4AFC48C35910509F473
:103B4000AFC48A35910509F027C510928B030C94F8
:103B50000A3180915F0281110C940F310C940A316B
:103B600020915F02222311F40C940A3111E0029794
:103B700009F010E00E9419B019821A821B821C827F
:103B80001D821E821F82188682E50E943834882397
:103B900009F42CC10E94B8334B015C0120E030E0F5
:103BA000A9010F948F27882309F436C120915E055F
:103BB00030915F0540916005509161052EA33FA3B0
:103BC00048A759A74091620550916305609164052B
:103BD000709165054AA75BA76CA77DA760917205E8
:103BE0007091730580917405909175056EA77FA7FC
:103BF00088AB99AB8091760590917705A091780577
:103C0000B09179058AAB9BABACABBDAB2EA53FA504
:103C100048A959A96EA17FA188A599A50F948F27BE
:103C200081110DC02AA93BA94CA95DA96AA57BA554
:103C30008CA59DA50F948F27882309F4EDC020E063
:103C400030E0A901C501B4010F948F27881F882790
:103C5000881F181749F020E030E040E85FEB2AAFFA
:103C60003BAF4CAF5DAF08C040E050E060E87FE3A1
:103C70004AAF5BAF6CAF7DAF2EA13FA148A559A560
:103C80006EA57FA588A999A90F940B2C6EAB7FAB6D
:103C900088AF99AF2AA53BA54CA55DA56AA97BA9CC
:103CA0008CA99DA90F940B2C6B017C012EA93FA917
:103CB00048AD59ADCA01B9010F94F4272B013C015D
:103CC000A7019601C701B6010F94F4279B01AC012F
:103CD000C301B2010F940C2C0F94772E2B013C01E1
:103CE00020E030E040E05FE30F94F42722966CAFD1
:103CF0007DAF8EAF9FAF2297A5019401C501B4019E
:103D00000F94F4274B015C0122962CAD3DAD4EADD6
:103D10005FAD2297CA01B9010F94F4279B01AC0152
:103D2000C501B4010F940B2C0F94772E2AAD3BAD37
:103D30004CAD5DAD0F94F4274B015C01C701B6019A
:103D40009058A30192010F94E82CA50194010F94BF
:103D5000F4276B017C012EA53FA548A959A96EA1A6
:103D60007FA188A599A50F940C2C20E030E040E0BD
:103D70005FE30F94F4279B01AC01C701B6010F94D8
:103D80000C2C2EA13FA148A559A50F940B2C69839B
:103D90007A838B839C832AA93BA94CA95DA96AA538
:103DA0007BA58CA59DA50F940C2C20E030E040E075
:103DB0005FE30F94F4276B017C01A30192016EA9CC
:103DC0007FA988AD99AD0F94E82CA50194010F94BB
:103DD000F4279B01AC01C701B6010F940C2C2AA556
:103DE0003BA54CA55DA50F940B2C12C089E40E9445
:103DF0003834882331F00E94B83369837A838B8307
:103E00009C838AE40E943834882331F00E94B833BE
:103E10006D837E838F83988720E030E0A9016981DC
:103E20007A818B819C810F948F2781110EC020E0B5
:103E300030E0A9016D817E818F8198850F948F2755
:103E4000811103C0E6EBF3E20DC0412FBE016F5FAD
:103E50007F4F82E795E00E94DEE50C940A310E94D4
:103E600036FFF80184918F010F5F1F4F8111F7CF4B
:103E7000E9E8F2E084918F010F5F1F4F882311F46E
:103E80000C940A310E9436FFF801F4CF80E50E94BD
:103E90003834882329F00E9444FE6B017C0103C062
:103EA000C12CD12C760183E50E943834882361F03F
:103EB0000E94B83320E030E04AE754E40F94F4273E
:103EC0000F94552D6B017C010E94E28780916D0A51
:103ED000811105C060E08FE992E00E94DE640E94DB
:103EE000B49AC60ED71EE81EF91E0E94B49ADC01D1
:103EF000CB018C199D09AE09BF09B7FD02C00C9416
:103F00000A3180E00E9464E2F0CF0E94E8978111BC
:103F10000C940A3180E090E0A0E5B1EC89839A83AB
:103F2000AB83BC8380E090E0ADE7B3E48D839E83F8
:103F3000AF83B88780E090E0A0E2B1E489879A87F8
:103F4000AB87BC8780E50E943834882319F00E9433
:103F5000883301C060E068A3BE016F5F7F4FCE0170
:103F600080960F9406060C940A3180E00E942FB4CC
:103F70000C940A3183E50E943834882399F00E941A
:103F80009833182F863080F0E8E5F3E084918F01B4
:103F90000F5F1F4F882311F40C940A310E9436FFE3
:103FA000F801F4CF10E010C0833009F44DC130F4B3
:103FB000813081F1823009F441C006C0843009F4B7
:103FC000AEC1853009F4BBC10E9498B1811103C014
:103FD000E8E3F3E013C080915E09882319F062E3FF
:103FE00073E002C066E373E080E393E00E9467EB56
:103FF0008AE00E9436FF0F949C06A7C184917F013E
:104000005FEFE51AF50A882309F49FC10E9436FF85
:10401000F701F4CF0F9441071092010210920002B1
:104020008091540981110AC085E293E090932305A1
:10403000809322050E949FFD0C940A31809100021A
:104040009091010297FF0EC0ECEFF2E084918F0196
:104050000F5F1F4F882311F40C940A310E9436FF22
:10406000F801F4CF0097A1F480913D0280938C0376
:1040700019821A821B821C8218A219A21AA21BA2E0
:10408000BE016F5F7F4FCE0180960E9411B427C0A2
:10409000815065E00F94D42E80FF03C024E0291BDB
:1040A000922F65E09602F0011124E80FF11D87FDC3
:1040B000FA95EE0FFF1FEE0FFF1FEF5CFA4E809197
:1040C000660590916705A0916805B09169058083A8
:1040D0009183A283B38380918C0380933D0280916E
:1040E000000290910102893191050CF066C0109296
:1040F0003D029C012F5F3F4F30930102209300024D
:1041000065E00F94D42E80FF03C024E0291B922F7A
:104110004091660550916705609168057091690549
:1041200048A359A36AA37BA319821A821B821C820B
:1041300074E0870290011124D901A351B54F4D01BC
:104140002D913D914D915C91B4E09B02C0011124F1
:10415000FC01EF5FF44F5F01608171818281938187
:10416000DE0111966D01E12CF12C00EA10E40E94B1
:1041700001B319821A821B821C82B601CE0180967D
:104180000E9411B4F50180819181A281B381809355
:104190005E0590935F05A0936005B0936105F401FF
:1041A00080819181A281B3818093620590936305A0
:1041B000A0936405B093650544C080E090E0A0EA58
:1041C000B0E48093660590936705A0936805B0936B
:1041D00069050E94AAB20E94E2878FEF9FEF909339
:1041E000010280930002E8EEF2E084918F010F5FFC
:1041F0001F4F882321F00E9436FFF801F6CF83E994
:1042000092E09A83898304E610E019A308A3BE0113
:104210006F5F7F4FCE0180960E946ED68AEB92E050
:104220009A83898319A308A3BE016F5F7F4FCE01D4
:1042300080960E946ED681E00E942FB481E00E9499
:10424000C5B11092540983C088E50E943834882390
:10425000D1F00E9488331FEF160F1530D8F065E0BB
:1042600070E085ED92E00E944EEBE2EDF2E0849189
:104270008F010F5F1F4F882311F40C940A310E94A5
:1042800036FFF801F4CF88E50E9436FF0F9408202E
:104290000C940A3189E50E9438348823D1F00E94B9
:1042A00088330FEF060F0530D8F065E070E08FEB34
:1042B00092E00E944EEBECEBF2E084918F010F5FF5
:1042C0001F4F882311F40C940A310E9436FFF80125
:1042D000F4CF89E50E9436FF0F9408200C940A3130
:1042E0008AE50E943834882399F00E94B83325E08B
:1042F000129FF0011124E00FF11DEE0FFF1FEE0FD2
:10430000FF1FEF5CFA4E608371838283938335C015
:104310008AE50E9436FF0F9408200C940A318AE542
:104320000E9438348823A1F30E94B8336093560961
:104330007093570980935809909359091EC080E0E3
:104340000E94C5B10F94410718C01230B1F46091BA
:104350000002709101026931710514F069E170E0A9
:104360008DEA92E00E944EEB69E170E088EA92E00B
:104370000E944EEB8AE00E9436FF0E9425500C946A
:104380000A3180915F02882311F40C940A3189E488
:104390000E943834E82E882321F00E948833062FAB
:1043A00001C000E08AE40E943834F82E882321F00E
:1043B0000E948833162F01C010E0EE2011F0053066
:1043C00020F4FF2081F0153070F0EFE6F3E08491E7
:1043D0008F010F5F1F4F882311F40C940A310E9444
:1043E00036FFF801F4CF0E945234EE2091F034E011
:1043F0000302F0011124EF5FF44F80819181A281CB
:10440000B3818093720590937305A0937405B09364
:104410007505FF2091F044E01402F0011124E351EE
:10442000F54F80819181A281B3818093760590932D
:104430007705A0937805B093790580E50E9438341C
:10444000882319F00E94A93303C080E50E94EF334E
:1044500086E40E9438348823D9F00E94B8336B0177
:104460007C0120E030E0A9010F94322E181684F46C
:1044700020E030E040E752E4C701B6010F94E82C99
:1044800060934202709343028093440290934502EA
:104490000F9404100C940A3120938B030C940A316E
:1044A00074E6272E72E0372EEBEDEE2EEDE0FE2EB9
:1044B0006EE575E07FA36EA3FFE5CF2EF9E0DF2E5A
:1044C00000E010E0D1018D911D010E943834882355
:1044D00009F44BC00E94B8332B013C01133049F062
:1044E000F60120813181428153810F940B2C2B01E5
:1044F0003C01AEA1BFA12D913D914D915C91C301B5
:10450000B2010F940B2C4B015C012DEB37E346E815
:1045100055EB0F94322E87FD0AC02DEB37E346E8AA
:1045200055E3C501B4010F948F271816F4F4133026
:1045300051F440926A0550926B0560926C0570923E
:104540006D0501E012C0A5019401F7016081718140
:10455000828193810F940C2CD7016D937D938D9361
:104560009C931397812F0E9478B51F5FB4E0EB0EE8
:10457000F11CEEA1FFA13496FFA3EEA3F4E0CF0E51
:10458000D11C143009F09ECF002309F4F6CE8AE640
:1045900095E00E948597F1CE0E94BA990C940A3159
:1045A0008091B9159091BA158537910509F499C78D
:1045B0000CF0C1C08C34910509F4CAC40CF058C089
:1045C0008931910509F4ADC21CF58431910509F4D6
:1045D000B9C17CF48131910509F42FC22CF4029702
:1045E00008F4B3C10C94B930429709F424C60C9472
:1045F000B9308631910509F46DC20CF467C2873178
:10460000910509F46DC2489709F480C20C94B93041
:104610008E31910509F43BC384F48B31910509F483
:1046200094C20CF484C28C31910509F426C34D97D1
:1046300011F40C940A310C94B9308A32910509F4C2
:104640002EC44CF48F31910509F4FFC3809709F40F
:10465000B0C30C94B9308133910509F454C48B3440
:10466000910511F00C94B9300E9482EB0C940A3140
:104670008936910509F43AC544F58335910509F465
:10468000D7C59CF48E34910509F46AC40CF464C453
:104690008135910509F4B6C58235910511F00C9468
:1046A000B93010928A030C940A318535910509F4CA
:1046B000F1C50CF4C0C58C35910509F404C68836E3
:1046C000910509F451C40C94B9308E36910509F462
:1046D00076C49CF48B36910509F482C50CF462C54E
:1046E0008C36910509F4D1C48D36910511F00C94E6
:1046F000B9300E94D6530C940A318137910509F4E0
:10470000C8C46CF48F36910509F46CC480379105E8
:1047100011F00C94B93084E694E00E9402E28237F2
:10472000910509F444C68337910511F00C94B93012
:10473000E5E6F5E07BC68D3231E0930711F40C9489
:104740005F2E0CF07FC0893C910509F4F6C77CF51B
:104750008C38910509F40CC5ACF48737910509F440
:104760001BC70CF4CDC68837910509F418C78937E3
:10477000910511F00C94B9301092B4071092B30760
:104780000C940A318B39910509F4CBC434F4813986
:10479000910509F40AC70C94B9308E3B910509F4D0
:1047A000FDC4883C910509F478C70C94B930833D69
:1047B000910511F40C94922D34F58C3C910509F47B
:1047C000F3C764F48B3C910511F00C94B930A4E666
:1047D000EA2EA2E0FA2E09EF19E0D8C78D3C910528
:1047E00011F40C94452C8E3C910511F00C94B930C9
:1047F000E4E6CE2EE2E0DE2EF6EBEF2EF7E0FF2E23
:1048000010E00C94B12C823E910511F40C940C2E06
:1048100064F48C3D910511F40C94952D8D3D91051A
:1048200011F40C94A02D0C94B930823251E095070C
:1048300011F40C94312E8C32914011F40C943A2ED8
:104840000C94B930843F71E0970711F40C94E02F79
:10485000E4F58039B1E09B0711F40C94D72FC4F430
:104860008F32F1E09F0711F40C94472F14F40C944D
:10487000F72E803331E0930711F40C944A2F8336DE
:10488000914011F00C94B930E6EBF3E20C94C42F94
:10489000843A51E0950711F40C94DA2F4CF48A39DC
:1048A000914011F00C94B9300E94C2CE0C940A31A0
:1048B000853AA1E09A0711F40C94DD2F8C3A9140CF
:1048C00011F40C94C12C0C94B9308C30E2E09E07AA
:1048D00011F40C941730B4F4863F21E0920711F4E0
:1048E0000C94E62F14F40C94E32F873F41E09407D7
:1048F00011F40C94E92F883F914011F40C94F32F9C
:104900000C94B9308B3863E0960711F40C940A319B
:104910006CF48835A2E09A0711F40C941F308B35A3
:10492000924011F40C9422300C94B930803AE3E0B8
:104930009E0709F47DC2873E934011F40C94A73082
:104940000C94B930E9EBF3E083C0A090B715B090B8
:10495000B81580E50E943834882359F00E9444FE3F
:104960006B017C0111E0672B682B692B31F410E09F
:1049700004C010E0C12CD12C760183E50E943834AC
:10498000882311F40C9414310E94B83320E030E0F5
:104990004AE754E40F94F4270F94552D6B017C01E2
:1049A00011110BC0672B682B692B39F4A114B104CA
:1049B00021F0D5018C91811102C010E001C011E0FD
:1049C0000E94E287112329F061E0C5010E94186569
:1049D00005C060E08EE893E00E94DE6483E080938F
:1049E000CB0D81E08093AE04C114D104E104F10445
:1049F000B1F00E94B49AC60ED71EE81EF91E0E949E
:104A0000B49ADC01CB018C199D09AE09BF09B7FF2F
:104A10000EC08091AE0481110C94193108C08091B0
:104A2000AE04882321F080E00E9464E2F8CF0E9467
:104A3000E9551092AE040C940A3160E081EA93E0EB
:104A40000E94DE644298179815982E980C940A31AB
:104A500084918F010F5F1F4F882321F00E9436FF42
:104A6000F801F6CF1092B30D86E69BE00E9419BBC9
:104A70008BE1E6E6FBE0DE01159601900D928A954A
:104A8000E1F78091640B9091650B9C838B8382E1AD
:104A900093E09A83898340E050E0BE016F5F7F4FCF
:104AA00080E090E00E9483D7CE0101960E94E6E16B
:104AB000EAEAF3E084918F010F5F1F4F882311F41E
:104AC0000C940A310E9436FFF801F4CF0E945394EF
:104AD0000C940A311092350B1092360B0C940A315B
:104AE000E091B715F091B8158081882329F08032C4
:104AF00009F410823196F8CF40E061E08091B7155B
:104B00009091B8150E946F920C940A318091360BE7
:104B1000882319F081E08093350B0E9482EB0C947E
:104B20000A311092350B0F94C1190C940A318091FF
:104B3000360B882311F40C940A3183E50E94383433
:104B400081110C941E310C940A3183E40E94EF33DE
:104B5000882309F450C0E7EFF3E084918F010F5FE1
:104B60001F4F882321F00E9436FFF801F6CF809175
:104B7000010D811103C0EAECF3E012C0BE016F5FCA
:104B80007F4F8EEF9CE00E94E1B98E010F5F1F4FB7
:104B9000F80181918F01882349F10E9436FFF8CFF7
:104BA00084918F010F5F1F4F882301F10E9436FF10
:104BB000F801F6CF6FE4C62E64E0D62EE12CF12C7E
:104BC00020E080912F0590E00E2C02C095958795EE
:104BD0000A94E2F780FD36C2EFEFEE1AFE0AF2E029
:104BE000CF0ED11C35E0E316F10459F78AE00E949C
:104BF00036FF0C940A318091360B882339F080916E
:104C0000350B882319F0E4EDF3E003C0E6EEF3E0A2
:104C100028C084918F010F5F1F4F882321F00E94CD
:104C200036FFF801F6CF6091AF0D7091B00D809115
:104C3000B10D9091B20D4AE00E943DFF8FE20E94BB
:104C400036FF6091AB0D7091AC0D8091AD0D9091E0
:104C5000AE0D4AE00E943DFF8AE00E9436FF0C94B0
:104C60000A3184918F010F5F1F4F882311F40C9438
:104C70000A310E9436FFF801F4CF40E060E08091F5
:104C8000B7159091B8150E946F920C940A318091DB
:104C9000360B882311F40C940A318EEF9CE00F94AC
:104CA000430E8EEF9CE00E94BCB91092340B109220
:104CB000330B8091360B882311F40C940A31009148
:104CC000B7151091B8150E9474D7B801CE0180961F
:104CD0000E948AD98C01892B11F40C940A3168A1A5
:104CE00079A16115710511F06C5F7F4F19821C82EB
:104CF00022E0A801CE0101960E944FBF811102C09F
:104D0000F12C14C0CE0101960E94E2D68823C1F393
:104D100061E0CE0101960E94C5B9009789F325EEA6
:104D2000DC012C931C820F94EC0BF82ECE01019623
:104D30000E9430FFF11003C0E4E1F4E022C0E6E09D
:104D4000F4E084917F01BFEFEB1AFB0A882321F086
:104D50000E9436FFF701F5CFF80181918F0188237A
:104D600019F00E9436FFF8CF8AE00E9436FF1092B9
:104D7000AF0D1092B00D1092B10D1092B20D0C94B7
:104D80000A3184917F012FEFE21AF20A882321F081
:104D90000E9436FFF701F5CFD8018D918D01882350
:104DA00019F00E9436FFF8CF8EE20E9436FF0C9475
:104DB0000A318091350B81110E94E2878091360B78
:104DC000882311F40C940A3180E50E94383488233A
:104DD00019F00E94A93303C080E50E94EF33182F19
:104DE000482F61E08091B7159091B8150E946F929D
:104DF00083E50E943834882381F00E948833AB0118
:104E0000BC014093AF0D5093B00D6093B10D709302
:104E1000B20D8EEF9CE00E94D2B88091360B8823B1
:104E200019F081E08093350B11110C940A3175CE85
:104E30008091B7159091B81521E02093340B40E094
:104E400060E00E946F920C940A310F94721968A36B
:104E500079A38AA39BA3BE016F5F7F4FCE0180968B
:104E60000E9454FE60E0CE0101960E941865E1EBBD
:104E7000FEE284918F010F5F1F4F882321F00E9473
:104E800036FFF801F6CFBE016F5F7F4F8CE294E0F2
:104E90000E9467EB8AE00E9436FF0C940A3183E59A
:104EA0000E943834882311F40C940A310E949833FC
:104EB000E82E80E50E943834882339F00E94983328
:104EC000182F87FF03C00C940A3116E089E40E9472
:104ED0003834882341F00E94A93381110C94C431E5
:104EE000EAECF6E00BC089E40E94EF33F6CF31968E
:104EF000B6E0E73FFB0711F40C94C431849118131A
:104F0000F6CF0C946031F090860381E0F826F092A1
:104F10008603E4E4F4E084918F010F5F1F4F882340
:104F200021F00E9436FFF801F6CFFF2019F0E9E3E7
:104F3000F4E002C0EEE3F4E084918F010F5F1F4FB5
:104F4000882311F40C940A310E9436FFF801F4CF43
:104F50000F94C1190C940A310E94C9EB0C940A31C8
:104F60000E94BE520C940A3188E690E00E94B8B5C7
:104F700081110C940A3180912F0583FF02C00C949B
:104F80000A3183E50E9438348823A9F00E94B8339F
:104F90000F94502DCB010E9468640E94B83320E02A
:104FA00030E04AEA52E40F948F27181624F00E944A
:104FB000C9EB0E94E9550E947BED0C940A318EE406
:104FC0000E943834882311F40C940A310E948833EB
:104FD00060938F0770939007809391079093920747
:104FE0000C940A3183E50E94EF33882359F083E55E
:104FF0000E943834882319F00E94983301C080E061
:1050000080932F05E1EBFEE284918F010F5F1F4F2C
:10501000811103C0EDE5F4E004C00E9436FFF80101
:10502000F3CF84918F010F5F1F4F882321F00E94DF
:1050300036FFF801F6CF80912F058111BBCDE9E550
:10504000F4E018C0BB24B394B20E222319F08CE212
:105050000E9436FFF60185919491FC0184918F01A5
:105060000F5F1F4F882321F00E9436FFF801F6CF13
:105070002B2DB2CD84918F010F5F1F4F882309F430
:10508000B5CD0E9436FFF801F5CF109227020C949F
:105090000A3183E50E943834811103C0E1EBFEE25E
:1050A0000DC00E9498338D3320F4809346020C94F7
:1050B0000A318CE3809346020C940A3184918F016B
:1050C0000F5F1F4F882321F00E9436FFF801F6CFB3
:1050D0004091460250E060E070E08DE694E00E946E
:1050E00014EB8AE00E9436FF0C940A3189E690E0C6
:1050F0000E94B8B5811111C0E4E7F4E084918F01FA
:105100000F5F1F4F882321F00E9436FFF801F6CF72
:105110000E945FD08AE00E9436FF1092CB0D0C9463
:10512000D93183E50E943834882311F40C940A3174
:105130000E949833182F8D3308F01CE31093DA0D7A
:105140000E94B49A6B017C01212F30E0A8EEB3E0FD
:105150000F94FC2BC60ED71EE81EF91EC092D60D6A
:10516000D092D70DE092D80DF092D90D0C940A315F
:1051700080912F0583FF02C00C940A3183E50E94C1
:105180003834882311F40C940A310E94B8330F94F8
:10519000502DCB010E9444340C940A310E94EF50F0
:1051A0000C940A3180E50E943834811106C083E5F1
:1051B0000E943834882361F006C00E949833811120
:1051C0000C940A31F4CF0E9488336F3F710510F0C0
:1051D0006FEF70E070930714609306140C940A311B
:1051E00080E50E943834811106C010920714109295
:1051F00006140C940A310E948833672B11F00C942A
:105200000A31F3CF0E9405D40E942088109207141F
:105210001092061468EE73E080E090E00E94CE6386
:105220000E949FB860E087E794E00E94DE64F2C7C6
:1052300020938A03EFC783E50E943834882399F0CE
:105240000E94B83320E030E04AE754E40F94F4279A
:105250000F94552D60934702709348028093490242
:1052600090934A02D7C788E50E94EF338111F6C7B1
:1052700089E50E94EF338111F1C78AE50E94EF337F
:105280008111ECC785E40E94EF338111E7C70E94CA
:105290002088C0C783E50E94EF33882309F4BAC78A
:1052A0000E94B83320E030E04AE754E40F94F4273A
:1052B0000F94552D6093D00D7093D10D8093D20D26
:1052C0009093D30DA7C744E6C42E42E0D42E56E4F3
:1052D000E52E55E0F52E10E0D6018D916D010E946E
:1052E000EF33882309F459C0133009F04FC00E94EE
:1052F000B8334B015C0120E030E040EA51E40F9408
:105300008F2787FF3AC0A5019401609152057091E3
:10531000530580915405909155050F94E82C2B016D
:105320003C019B01AC016091050A7091060A8091D5
:10533000070A9091080A0F94F4276093050A709366
:10534000060A8093070A9093080A6091170E7091DD
:10535000180E8091190E90911A0E0F949327A301A5
:1053600092010F94F4270F94552D6093170E7093AC
:10537000180E8093190E90931A0E809252059092F7
:105380005305A0925405B092550507C00E94B8334A
:10539000F70160837183828393831F5FF4E0EF0ED4
:1053A000F11C143009F098CF0E94E0EE33C70E9440
:1053B000E28783E50E943834882311F40C94BD21E0
:1053C0000E9488336230710511F00C94BD210F9456
:1053D000DD138BE50E9436FF60913E1670913F16FB
:1053E000809140169091411642E00E94C2FF409188
:1053F000421650914316609144167091451683E809
:1054000094E00E9431EB409146165091471660910E
:1054100048167091491680E894E00E9431EB8DE5C2
:105420000E9436FF8AE00E9436FFF4C684918F0105
:105430000F5F1F4F882321F00E9436FFF801F6CF3F
:1054400060E085E595E00E94EE4F61E08EE495E036
:105450000E94EE4F61E083E495E00E94EE4F61E030
:1054600083E395E00E94EE4F60E08AE295E00E94BF
:10547000EE4F61E080E295E00E94EE4F60E086E151
:1054800095E00E94EE4F60E08EE095E00E94EE4FC6
:1054900061E080E095E00E94EE4F60E082EF94E0F2
:1054A0000E94EE4F60E083EE94E00E94EE4F60E0D9
:1054B00085ED94E00E94EE4F60E08FEB94E00E9457
:1054C000EE4F60E08EEA94E00E94EE4F60E089E9E2
:1054D00094E00E94EE4F61E086E894E00E94EE4F77
:1054E00099C68091B7159091B815DC012C912223B3
:1054F00021F060E00E9418658DC60E94E9558AC6B9
:105500000091B7151091B81583E0D12C40E081507F
:10551000E1F0F8019081292F2B7F2134C1F72181FF
:105520002133A9F7913421F0953421F441E002C0F0
:10553000DD24D39498012E5F3F4F89012F5F3F4FA9
:10554000D8019C919032C9F3E2CF442369F0E1EB9A
:10555000FEE284917F01BFEFEB1AFB0A882321F062
:105560000E9436FFF701F5CFDD2069F0EBE2F6E0AF
:1055700084917F012FEFE21AF20A882321F00E9422
:1055800036FFF701F5CFD8018D918D01882309F4FD
:105590002DCB0E9436FFF7CF0F94C7073BC681E0A3
:1055A0008093B4078093B30735C683E50E943834EF
:1055B000882319F00E94883302C060E070E08B01FC
:1055C000112702301105D4F0E6EBF3E284918F014C
:1055D0000F5F1F4F811103C0EFE2F6E004C00E948D
:1055E00036FFF801F3CF84918F010F5F1F4F88239F
:1055F00009F410C60E9436FFF801F5CF88E40E9436
:1056000038348823A9F00E9488336A3A71053CF047
:105610006530B1E07B072CF064E071E002C06AEA1B
:1056200070E0F801EE0FFF1FEA50FB4F71836083BB
:1056300086E40E9438348823A9F00E948833F80158
:10564000EE0FFF1FE650FB4F718360836F3F7105C4
:1056500019F014F06FEF70E077FF02C060E070E0C7
:105660007183608382E40E943834882309F4D2C5B0
:105670000E9488336530710534F0683871052CF06C
:1056800067E870E002C065E070E0000F111FF801EC
:10569000EE50FB4F71836083BDC588EC90E00E94A3
:1056A000B8B58111B7C584E40E94EF33882309F4AB
:1056B00041C00E94B8336B017C0111E020E030E072
:1056C000A9010F948F27811101C010E01093C60D1E
:1056D00020E030E0A901C701B6010F948F2788238D
:1056E00049F10E94B833E0914A0A24E0E29FF001B8
:1056F0001124EE53F24F608371838283938320E001
:1057000030E0A9016091C20D7091C30D8091C40D6C
:105710009091C50D0F948F2781110CC080E090E00F
:10572000A0EEBFE38093C20D9093C30DA093C40D70
:10573000B093C50D0F94AE006DC5B4E6EB2EB2E08C
:10574000FB2E09E01AE089E1C82E8AE0D82ED701A5
:105750008D917D010E94EF33882349F00E94B83378
:105760000F94552DF80160837183828393830C5FBE
:105770001F4FC016D10659F70E94ABED4BC50C5F09
:105780001F4FFAE009301F0709F444C5D7018D9176
:105790007D010E94EF33882391F3EAD7F8016083FB
:1057A000718382839383EBCF83E50E94383488230F
:1057B00099F0DED76093210A7093220A8093230A1E
:1057C0009093240A6093190A70931A0A80931B0A13
:1057D00090931C0A10E001C011E080E50E9438346B
:1057E000882351F0C5D76093210A7093220A8093D1
:1057F000230A9093240A10E082E50E94383488231B
:1058000051F0B6D760931D0A70931E0A80931F0A49
:105810009093200A10E084E50E943834882351F0E8
:10582000A7D76093190A70931A0A80931B0A909362
:105830001C0AF0C4112309F4EDC44091210A5091CF
:10584000220A6091230A7091240A87E596E00E945B
:1058500031EB40911D0A50911E0A60911F0A709110
:10586000200A84E596E00E9431EB4091190A50919C
:105870001A0A60911B0A70911C0A81E596E00E9449
:1058800031EB8AE00E9436FFC5C481E5A8D78823A2
:1058900051F00E9444FE60930605709307058093C3
:1058A00008059093090583E59AD7882349F060D7C6
:1058B0006093F5097093F6098093F7099093F809BE
:1058C00084E58DD7882349F053D76093F10970930D
:1058D000F2098093F3099093F4098AE480D788232E
:1058E00009F498C445D76B017C012AE037ED43E207
:1058F0005CE30F94322E87FD0AC02AE939E949E9B1
:105900005EE3C701B6010F948F2718161CF4E6EB6F
:10591000F3E20CC0C092250AD092260AE092270A30
:10592000F092280A77C40E9436FFF80184918F0113
:105930000F5F1F4F8111F7CFE7E6F6E084918F01EB
:105940000F5F1F4F882309F465C40E9436FFF801DA
:10595000F5CF1F5FF4E0EF0EF11C133011F40C943F
:10596000BD21D6018D916D013AD7882391F300D7DF
:10597000F7016083718382839383812F0E9478B5BE
:10598000E8CF0E94E897811145C406E111E32EE5B6
:1059900035E03FA32EA3AE014F5F5F4F5A017FE674
:1059A000872E71E3972E1A01F80165917591859103
:1059B0009491AEA1BFA1CD90DD90ED90FD90BFA3DD
:1059C000AEA3A70196010F940B2C2B013C01F10112
:1059D000608371838283938320E030E040EA51EC5E
:1059E0000F94322E87FD0AC020E030E040EA51E4F7
:1059F000C301B2010F948F2718162CF4F40184917F
:105A000018160CF452C4D101CD90DD90ED90FD90AC
:105A10001D0120E030E040EA51ECC701B6010F94CF
:105A2000322E87FD0AC020E030E040EA51E4C70191
:105A3000B6010F948F27181684F5E6EBF3E28491F4
:105A40008F010F5F1F4F811103C0E4EAF6E004C02D
:105A50000E9436FFF801F3CF84918F010F5F1F4F33
:105A6000882321F00E9436FFF801F6CF61E086E935
:105A700096E00E94DE640E942E5788E290E099A38F
:105A800088A388EC90E09DA38CA3BE01605E7F4F4D
:105A9000CE0184960E946ED6BDC30C5F1F4FBFEF30
:105AA0008B1A9B0AE1E302321E0709F07DCF66EBF9
:105AB000E62E67E0F62E10E0F50181919191A1911B
:105AC000B1915F01F70181939193A193B1937F010C
:105AD000812F0E9478B51F5F133071F70E94255007
