:100000000C94851D0C94B61D0C94B61D0C94B61D55
:100010000C94B61D0C94B61D0C94B61D0C94B61D14
:100020000C94B61D0C94B61D0C94B61D0C94B61D04
:100030000C94B61D0C94449B0C94B61D0C94B61DE8
:100040000C94B61D0C9429EE0C94B61D0C94B61DA0
:100050000C94B61D0C94B61D0C94D9D10C94FA9A3C
:100060000C94B61D0D941B000C94B61D0C94B61D7B
:100070000C94B61D0C94B61D0C94B61D0C94B61DB4
:100080000C94B61D0C94B61D0C94B61D0C94B61DA4
:100090000C94B61D0C94B61D0C94B61D0C94B61D94
:1000A0000C94B61D0C94B61D0C94B61D0C94B61D84
:1000B0000C94B61D0C94B61D0C94B61D0C94B61D74
:1000C0000C94B61D0C94B61D0C94B61D0C94B61D64
:1000D0000C94B61D0C94B61D0C94B61D0C94B61D54
:1000E0000C94B61D67994D995099539956996299F8
:1000F000599973995C995F990DD6E9D41FD549D662
:100100001FD51FD51FD51FD51FD51FD51FD51FD54F
:100110001FD51FD51FD51FD51FD51FD51FD51FD53F
:100120001FD51FD51FD51FD51FD51FD51FD51FD52F
:100130001FD51FD543D61FD51FD51FD51FD51FD5FA
:100140001FD51FD51FD51CD61FD51FD51FD51FD511
:100150001FD51FD51FD51FD51FD51FD560D61CD5C0
:100160001801340120013A0132012A012601160149
:10017000360122013801080142012E012A011A012B
:100180000A013E010E0104011C011401FA002801BC
:100190003C0124010C0140011E01FE0006012C015E
:1001A0002801FC0002013001084AD73B3BCE016E1A
:1001B00084BCBFFDC12F3D6C74319ABD56833DDABE
:1001C0003D00C77F11BED9E4BB4C3E916BAAAABECD
:1001D000000000803F05A84CCDB2D44EB93836A9F6
:1001E000020C50B9918688083CA6AAAA2ABE000033
:1001F00000803F000D94B2030D940D040D94EA03AA
:100200000D94EF200D9417040D9499030D94F903A8
:100210000D94BC000D94CE000D94CC030D9494036A
:100220000D940B220D94BB100D94A8030D94A800FF
:100230000D949D000D94CA000D949E030D94E0034F
:100240000D948F000D94B2000D94C4030D94A4007E
:100250000D942B040D94D7000D9403040D94C40049
:100260000D9421040D9499000D94A0000D94AE00FE
:100270000D94B6000D9493000D94BC030D94D20020
:100280000D94D6030D94C0004E414E494E49545929
:10029000494E46CDCCCC3D0AD7233C17B7D1387751
:1002A000CC2B329595E6241FB14F0A000020410067
:1002B00000C84200401C4620BCBE4CCA1B0E5AAEB1
:1002C000C59D74434F4D4D554E49434154494F4E82
:1002D0000044525952554E004552524F5253004914
:1002E0004E464F004543484F0047322F4733206268
:1002F000616420706172616D65746572730A005388
:100300006C6565702E2E2E00206F6620004D424CCD
:100310002047323920706F696E742000290A005915
:10032000206F7574206F662072616E6765202831BA
:100330002D00290A0058206F7574206F66207261A5
:100340006E67652028312D004D6573682070726FCF
:1003500062696E6720646F6E652E0A005374617265
:1003600074206D6573682070726F62696E672077A4
:10037000697468202247323920533122206669721D
:1003800073742E0A004732380A473239205332003C
:1003900053746174653A20004D657368206265642A
:1003A000206C6576656C696E6720686173206E6F7E
:1003B00020646174612E0A0053206F7574206F668B
:1003C0002072616E67652028302D35292E0A004D78
:1003D00065736820706F696E742063616E6E6F74F0
:1003E000206265207265736F6C7665640A00436CE9
:1003F00069636B20746F20726573756D652E2E2E88
:10040000004E6F206D6F76652E00456E6420666924
:100410006C65206C6973740A00426567696E2066BA
:10042000696C65206C6973740A00286E6F206669B8
:100430006C6529005344207072696E74696E672080
:100440006279746520004E6F742053442070726985
:100450006E74696E670A0043757272656E74206609
:10046000696C653A200046696C652064656C65744A
:1004700065643A0044656C6574696F6E20666169F5
:100480006C65642C2046696C653A20005072696E78
:10049000742074696D653A20006F6E2E0A006F66D5
:1004A000662E0A004732362044656275672000E4F4
:1004B00002DF02D802D102C3026F666600444542E1
:1004C00055473A004B494C4C45442E20004D3131A4
:1004D000332053006F6B00413230204F66662E0090
:1004E0002C20002C2000544845524D414C5F505266
:1004F0004F54454354494F4E004155544F52455077
:100500004F52545F53445F53544154555300454D2B
:10051000455247454E43595F50415253455200435F
:100520004153455F4C494748545F425249474854FC
:100530004E45535300544F47474C455F4C4947483D
:10054000545300534F4654574152455F504F5745FF
:1005500052004255494C445F50455243454E540069
:100560004C4556454C494E475F44415441005A5F03
:1005700050524F4245004155544F4C4556454C0052
:100580005052494E545F4A4F420050524F475245D5
:100590005353004155544F5245504F52545F5445A8
:1005A0004D5000564F4C554D45545249430045451A
:1005B00050524F4D0053455249414C5F584F4E5F8A
:1005C000584F4646004649524D574152455F4E41AD
:1005D0004D453A4D61726C696E2062756766697847
:1005E0002D312E312E7820284769746875622920B4
:1005F000534F555243455F434F44455F55524C3A24
:1006000068747470733A2F2F6769746875622E630B
:100610006F6D2F4D61726C696E4669726D77617294
:10062000652F4D61726C696E2050524F544F434F8D
:100630004C5F56455253494F4E3A312E30204D4172
:100640004348494E455F545950453A413230204560
:10065000585452554445525F434F554E543A3120F9
:10066000555549443A63656465326132662D3431CB
:1006700061322D343734382D396231322D633535BE
:100680006336326633363766660A002F2F20004DF8
:1006900031343520533C696E6465783E206F757443
:1006A000206F662072616E67652028302D31290A1F
:1006B00000205400205200416363656C65726174D0
:1006C000696F6E3A2050005741524E494E472120E3
:1006D0004C6F77205A204A65726B206D6179206CCF
:1006E00065616420746F20756E77616E7465642037
:1006F0007061757365732E0A004F66667365747357
:10070000206170706C696564004572723A20546FA4
:100710006F206661722100546F6F206661722066DF
:10072000726F6D207265666572656E636520706FAD
:10073000696E740A0020466C6F773A20000001252C
:10074000272318FFFFFFFF1F211D1CFFFFFFFF19BD
:10075000171B1EFFFFFFFFFFFF0C0409FFFFFF2E0B
:100760002C0CFFFFFF04400AFF4120643A0020697F
:100770003A0020703A00496E76616C6964206578B1
:100780007472756465720A0043290A0061626C65BF
:100790006420286D696E2074656D702000436F6C55
:1007A00064206578747275646573206172652000D9
:1007B00020643A0020693A0020703A004E6F2063AE
:1007C000617365206C696768740A00454550524F33
:1007D0004D204F4B0A00416374697665204578745B
:1007E00072756465723A2000496E76616C696420A6
:1007F00065787472756465720A00696E206D6F7633
:10080000655F746F282920666565645F76616C7525
:100810006520666F722058593A004C656176696EA2
:100820006720473236004732362048656174696E6A
:1008300067204E6F7A7A6C652E0047323620486505
:100840006174696E67204265642E00446F6E652096
:100850005072696D696E6700557365722D436F6ED6
:1008600074726F6C6C6564205072696D65004669C6
:10087000786564204C656E677468205072696D6598
:100880002E004D6573682056616C69646174696FF0
:100890006E2053746F707065642E002C2065793D56
:1008A0000029202D3E202865783D002C2073793DBD
:1008B0000020436F6E6E656374696E67207769749C
:1008C0006820766572746963616C206C696E65205E
:1008D0002873783D002C2065793D0029202D3E208D
:1008E0002865783D002C2073793D0020436F6E6EA3
:1008F000656374696E67207769746820686F7269D0
:100900007A6F6E74616C206C696E65202873783D17
:10091000004C656176696E6720473236003F537040
:100920006563696669656420582C5920636F6F722E
:1009300064696E617465206F7574206F6620626FE4
:10094000756E64732E0A003F2852296570656174C4
:100950002076616C7565206E6F7420706C617573A4
:1009600069626C653B206D757374206265206174EB
:10097000206C6561737420312E0A003F53706563EB
:100980006966696564206E6F7A7A6C652074656D3E
:100990007065726174757265206E6F7420706C6121
:1009A000757369626C652E0A003F537065636966F2
:1009B0006965642066696C616D656E742073697A1F
:1009C00065206E6F7420706C61757369626C652E42
:1009D0000A003F53706563696669656420707269D7
:1009E0006D65206C656E677468206E6F7420706C26
:1009F00061757369626C652E0A003F5370656369A7
:100A000066696564206E6F7A7A6C652073697A65B1
:100A1000206E6F7420706C61757369626C652E0A4C
:100A2000003F53706563696669656420526574723E
:100A3000616374696F6E204D756C7469706C696563
:100A400072206E6F7420706C61757369626C652EB4
:100A50000A003F52657472616374696F6E204D7550
:100A60006C7469706C696572206D75737420626551
:100A7000207370656369666965642E0A003F537070
:100A800065636966696564206C6179657220686573
:100A900069676874206E6F7420706C617573696229
:100AA0006C652E0A003F5370656369666965642052
:100AB0006265642074656D7065726174757265201D
:100AC0006E6F7420706C61757369626C6520283478
:100AD000302D31343043292E0A0047323620636FDF
:100AE0006D6D616E6420737461727465642E20573D
:100AF000616974696E6720666F72206865617465EC
:100B0000722873292E0A0024F4D43050C38E20C2D8
:100B1000A24017828B7011127A910D816CD90AA8AC
:100B200061E108C7586607615143061E4B5D05C168
:100B300045A7041A411104093D9803713931034056
:100B400036DB0265339102D4305402802E1D0263DD
:100B50002CEE01752AC501B028A001102781018F54
:100B60002564012B244B01E0223401AC211F018DAF
:100B7000200D01801FFC00841EED00971DDF00B8D2
:100B80001CD200E61BC600201BBC00641AB200B2D7
:100B900019A8000A19A0006A189900D117910040FD
:100BA000178B00B516840031167E00B31579003A14
:100BB000157300C7146F0058146A00EE136600889E
:100BC00013630025135E00C7125B006C12570015FB
:100BD000125400C111510070114F0021114B00D669
:100BE0001049008D1047004610440002104200C01A
:100BF0000F4000800F3E00420F3C00060F3B00CB31
:100C00000E3800930E37005C0E3500270E3400F3CB
:100C10000D3200C10D3100900D3000600D2E0032FC
:100C20000D2D00050D2C00D90C2B00AE0C290085D4
:100C30000C29005C0C2700350C27000E0C2600E860
:100C40000B2400C40B2400A00B23007D0B23005AAF
:100C50000B2100390B2100180B2000F80A1F00D9C6
:100C60000A1E00BB0A1E009D0A1D00800A1D0063AB
:100C70000A1C00470A1B002C0A1B00110A1A00F765
:100C8000091A00DD091900C4091900AB09190092FD
:100C90000917007B091800630917004C0916003674
:100CA000091600200916000A091500F5081500E0CC
:100CB000081400CC081400B8081400A4081400900C
:100CC0000813007D0812006B081300580812004634
:100CD0000812003408110023081100120811000145
:100CE000081100F0071000E0071000D0071000C046
:100CF000071000B0070F00A107100091070E008336
:100D0000070F0074070F0065070E0057070E004914
:100D1000070E003B070D002E070E0020070D0013E5
:100D2000070D0006070D00F9060C00ED060D00E0AA
:100D3000060C00D4060C00C8060C00BC060C00B063
:100D4000060C00A4060B0099060C008D060B008211
:100D5000060B0077060B006C060B0061060A0057B5
:100D6000060B004C060A0042060A0038060A002E4E
:100D7000060A0024060A001A060A001006090007DF
:100D8000060A00FD050900F4050900EB050900E26B
:100D9000050900D9050900D0050900C7050900BEED
:100DA000050900B5050800AD050800A50509009C6A
:100DB000050800940508008C050800840508007CDF
:100DC000050800740508006C050700650508005D4E
:100DD000050700560508004E0507004705070040B7
:100DE00005080038050700310507002A050700231C
:100DF0000507001C050600160507000F050700087B
:100E000005060002050700FB040600F5040700EED6
:100E1000040600E8040600E2040700DB040600D52F
:100E2000040600CF040600C9040600C3040600BD82
:100E3000040600B7040600B1040500AC040600A6D1
:100E4000040600A00405009B04060095040500901C
:100E50000406008A04050085040500800406007A63
:100E600004050075040500700405006B04050066A8
:100E7000040500610405005C0405005704050052E8
:100E80000405004D04050048040500430405003E28
:100E90000404003A04050035040500300404002C65
:100EA00004050027040400230405001E0404001A9E
:100EB00004040016040500110404000D04040009D4
:100EC0000405000404040000040400FC030400F80A
:100ED000030400F4030400F0030400EC030400E83E
:100EE000030400E4030400E0030400DC030400D86E
:100EF000030400D4030400D0030400CC030400C89E
:100F0000030300C503030024F404D9201BC40C5CB4
:100F10000E9804C4095F0265077101F405F900FB2E
:100F200004B30048048700C1036900580355000357
:100F3000034500BE023A008402310053022A002910
:100F400002250004022000E4011C00C8011900AFC2
:100F50000117009801140084011300710110006151
:100F600001100051010E0043010D0036010B002B52
:100F7000010B0020010B00150109000C0109000301
:100F8000010800FB000800F3000800EB000700E484
:100F9000000600DE000600D8000600D2000600CCE5
:100FA000000500C7000500C2000500BD000400B92F
:100FB000000400B5000400B1000400AD000400A965
:100FC000000400A5000300A20003009F0004009B92
:100FD00000030098000300950002009300030090B6
:100FE0000003008D0002008B0003008800020086D1
:100FF00000020084000300810002007F0002007DE7
:101000000002007B000200790002007700010076F8
:101010000002007400020072000100710002006F03
:101020000002006D0001006C0002006A000100690E
:101030000002006700010066000100650001006415
:101040000002006200010061000100600001005F19
:101050000002005D0001005C0001005B0001005A1D
:10106000000100590001005800010057000100561E
:10107000000100550001005400010053000000531E
:101080000001005200010051000100500001004F1A
:101090000001004E0000004E0001004D0001004C18
:1010A0000001004B0000004B0001004A0001004914
:1010B0000001004800000048000100470001004610
:1010C000000000460001004500000045000100440A
:1010D0000001004300000043000100420000004204
:1010E0000001004100000041000100400001003FFC
:1010F0000000003F0001003E0000003E0001003DF6
:101100000000003D0001003C0000003C0000003CED
:101110000001003B0000003B0001003A0000003AE3
:1011200000010039000000390001003800000038DB
:1011300000000038000100370000003700010036D1
:1011400000000036000000360001003500000035C8
:1011500000000035000100340000003400000034BD
:1011600000010033000000330000003300010032B2
:1011700000000032000000320001003100000031A8
:10118000000000310001003000000030000000309D
:101190000001002F0000002F0000002F0000002F92
:1011A0000001002E0000002E0000002E0001002D86
:1011B0000000002D0000002D0000002D0001002C7B
:1011C0000000002C0000002C0000002C0001002B6F
:1011D0000000002B0000002B0000002B0001002A63
:1011E0000000002A0000002A0000002A0001002957
:1011F000000000290000002900000029000000294B
:10120000000100280000002800000028000000283D
:101210000000002800010027000000270000002730
:101220000000002700000027000100260000002623
:101230000000002600000026000000260001002516
:10124000000000250000002500000025000000250A
:1012500000000025000100240000002400000024FC
:1012600000000024000000240001002300000023EF
:1012700000000023000000230000002300000023E2
:1012800000000023000100220000002200000022D4
:1012900000000022000000220000002200010021C6
:1012A00000000021000000210000002100000021BA
:1012B00000000021000000210001002000000020AB
:1012C000000000200000002000000020000000209E
:1012D00000000020000000200001001F0000001F8F
:1012E0000000001F0000001F0000001F0000001F82
:1012F0000000001F0001001E0000001E0000001E74
:101300000000001E00000039300000332500008777
:10131000190000B00F0000DB080000BD04000074DD
:101320000200003F01000025753A25303275002586
:101330003032753A253032750025756420253032FB
:10134000753A2530327500202020202020005A00D8
:101350005900202020200058000920000000000033
:1013600000000000000000003FFFF000000000004F
:1013700000000000000000380070000000000000C5
:1013800000000000000030FC300000000000000001
:10139000000000000020FC10000000000000000021
:1013A0000000000020781000000000000000000095
:1013B00000000020301000000000000000000000CD
:1013C00000002C00D03FC000000000000000208280
:1013D000002E31D07FE0000000000000001041002E
:1013E0002F7BD07FE0000000000000001041002FA4
:1013F0007BD07FE0000000000000002082002E3142
:10140000D03FC0000000000000004104002C00D0CC
:101410003FC0000000000000008208002030107F64
:10142000E0000000000000008208002078107FE04B
:101430000000000000000041040020FC107FE000DC
:1014400000000000000020820030FC301F800000FF
:1014500000000000000000003800700F00000000D5
:1014600000000000FFFFC03FFFF00600000000008A
:10147000000000FFFFC000000000000000000000AE
:1014800000000000003FFFF000000000000000002E
:1014900000000000380070000000000000000000A4
:1014A0000000003186300000000000000000000055
:1014B0000000238710000000000000000000000072
:1014C00000278790000000000000000000000000DE
:1014D0002F87D00000000000000000000000002F57
:1014E00003D03FC000000000000000208200203038
:1014F000107FE00000000000000010410020781084
:101500007FE0000000000000001041002078107F04
:10151000E0000000000000002082002030103FC0EA
:10152000000000000000004104002F03D03FC00075
:101530000000000000008208002F87D07FE000003C
:1015400000000000008208002787907FE000000074
:10155000000000004104002387107FE0000000002D
:101560000000002082003186301F80000000000053
:1015700000000000003800700F00000000000000B4
:1015800000FFFFC03FFFF006000000000000000069
:10159000FFFFC00000004132302052656164792EA7
:1015A000005072696E74696E672E2E2E005072693B
:1015B0006E7420706175736564005072696E74207A
:1015C00061626F72746564005072696E7420667235
:1015D0006F6D2053440053746F70207072696E7485
:1015E00000526573756D65207072696E74004E6F80
:1015F00020534420636172640050617573652070EC
:1016000072696E7400436F6E74726F6C0050726515
:10161000706172650054756E6500496E666F207367
:10162000637265656E0020746F6F206C6F6E67204B
:10163000657874727573696F6E2070726576656E09
:101640007465640A0020636F6C6420657874727539
:1016500073696F6E2070726576656E7465640A00DA
:1016600050726F7465637465642050696E0A004639
:10167000696C616D656E7420757365643A20005302
:10168000746174733A20002C204C6F6E676573741C
:10169000206A6F623A2000546F74616C2074696D27
:1016A000653A200053746174733A20002C2046611F
:1016B000696C65643A20002C2046696E6973686520
:1016C000643A20005072696E74733A20005374615A
:1016D00074733A200020573A004520436F6F6C69BD
:1016E0006E672E2E2E00452048656174696E672E48
:1016F0002E2E0020573A0042656420636F6F6C699C
:101700006E672E2E2E004265642068656174696ED6
:10171000672E2E2E00205A3A0020593A0020436F9F
:10172000756E7420583A0020453A00205A3A00203D
:10173000593A00583A003A004361703A00205A0082
:10174000205900580020204D61783A2000205A008E
:10175000205900580020204D696E3A20004F6E201D
:10176000004F666600536F667420656E6473746F15
:1017700070733A20004B64200023646566696E65CF
:101780002044454641554C545F004B69200023647A
:101790006566696E652044454641554C545F004B73
:1017A00070200023646566696E6520444546415596
:1017B0004C545F00504944204175746F74756E65D8
:1017C0002066696E697368656421205075742074A1
:1017D0006865206C617374204B702C204B6920610C
:1017E0006E64204B6420636F6E7374616E7473203B
:1017F00066726F6D2062656C6F7720696E746F2002
:10180000436F6E66696775726174696F6E2E680AE0
:1018100000504944204175746F74756E652066618F
:10182000696C6564212074696D656F75740A004583
:101830003120544845524D414C2052554E4157415C
:10184000590042454420544845524D414C20525580
:101850004E4157415900546865726D616C20527554
:101860006E617761790045312048656174696E6702
:10187000206661696C656400426564206865617416
:10188000696E67206661696C6564004865617469AA
:101890006E67206661696C6564005049442041753B
:1018A000746F74756E65206661696C65642120547F
:1018B000656D706572617475726520746F6F2068F4
:1018C0006967680A00204B643A2000204B693A207F
:1018D00000204B703A20000A20436C6173736963E7
:1018E00020504944200A002054753A2000204B75AE
:1018F0003A2000206D61783A2000206D696E3A2010
:101900000020643A200020626961733A2000504947
:1019100044204175746F74756E65206661696C65ED
:1019200064212054656D70657261747572652074F0
:101930006F6F20686967680A0050494420417574D8
:101940006F74756E652073746172740A0050494437
:10195000204175746F74756E65206661696C65648D
:101960002120426164206578747275646572206E0E
:10197000756D6265720A00436172642072656D6FF5
:10198000766564004361726420696E736572746584
:10199000640000060900FE0701920321207FFF0773
:1019A000FF07FF0000000600000107070602008095
:1019B000808080800080030202060105A0A0050748
:1019C000070600005050F850F85050050707060071
:1019D000002078A07028F020050707060000C0C886
:1019E00010204098180507070600006090A040A846
:1019F0009068020303060104C04080030707060144
:101A000000204080808040200307070601008040BE
:101A1000202020408005050506000120A870A82090
:101A20000505050600012020F82020020303060218
:101A3000FFC04080050101060003F8020202060211
:101A400000C0C005050506000108102040800507FC
:101A500007060000708888888888700307070601D9
:101A60000040C040404040E0050707060000708885
:101A700008708080F8050707060000F8102010089D
:101A800008F005070706000010305090F810100508
:101A90000707060000F880F00808887005070706A9
:101AA0000000708080F0888870050707060000F845
:101AB0000810202020200507070600007088887085
:101AC0008888700507070600007088887808087005
:101AD000020505060200C0C000C0C00206060602DC
:101AE000FFC0C000C040800407070600001020406F
:101AF00080402010050303060002F800F8040707E1
:101B000006010080402010204080050707060000E5
:101B1000708808102000200507070600007088085C
:101B200068A8A870050707060000708888F88888EC
:101B300088050707060000F08888F08888F0050708
:101B400007060000708880808088700507070600FF
:101B500000F08888888888F0050707060000F8806C
:101B600080F08080F8050707060000F88080F0808C
:101B70008080050707060000708880B88888700597
:101B80000707060000888888F88888880107070604
:101B90000200808080808080800507070600003872
:101BA0001010101090600507070600008890A0C074
:101BB000A09088050707060000808080808080F85C
:101BC00005070706000088D8A888888888050707C1
:101BD0000600008888C8A8988888050707060000BE
:101BE00070888888888870050707060000F0888854
:101BF000F080808005070706000070888888A8901C
:101C000068050707060000F08888F0A0908805079F
:101C100007060000788080700808F00507070600B6
:101C200000F82020202020200507070600008888D3
:101C30008888888870050707060000888888888853
:101C400050200507070600008888888888A8500566
:101C50000707060000888850205088880507070677
:101C6000000088888850202020050707060000F81B
:101C70000810204080F8030707060100E0808080FC
:101C80008080E0050505060001804020100803075C
:101C900007060100E02020202020E00503030600C5
:101CA00004205088050101060000F8020202060225
:101CB000058040050505060000700878887805074E
:101CC000070600008080B0C88888F005050506007A
:101CD0000070808088700507070600000808689873
:101CE0008888780505050600007088F8807005076B
:101CF000070600003048E040404040050606060068
:101D0000FF7088887808700507070600008080B09B
:101D1000C8888888010707060200800080808080CC
:101D2000800308080601FF200020202020A0400496
:101D30000707060000808090A0C0A0900307070658
:101D40000100C04040404040E0050505060000D0CD
:101D5000A8A8A8A8050505060000B0C888888805B9
:101D6000050506000070888888700506060600FFD5
:101D7000F08888F080800506060600FF788888785D
:101D80000808050505060000B0C880808005050527
:101D900006000070807008F004070706000040404D
:101DA000E0404040300505050600008888889868B6
:101DB00005050506000088888850200505050600F1
:101DC000008888A8A8500505050600008850205006
:101DD000880506060600FF888888780870050505CE
:101DE000060000F8102040F8030707060100204015
:101DF00040804040200107070602008080808080EC
:101E00008080030707060100804040204040800595
:101E10000202060002689000000006000045787487
:101E20007275646572004D6F7665205A004D6F764D
:101E3000652059004D6F76652058005072657061BD
:101E4000726500496E697469616C697A65204545FF
:101E500050524F4D00436F6E74726F6C0052657339
:101E6000746F7265206661696C73616665004C6FA2
:101E700061642073657474696E677300496E697478
:101E800069616C697A6520454550524F4D00537425
:101E90006F72652073657474696E67730046696C50
:101EA000616D656E74004D6F74696F6E0054656D81
:101EB0007065726174757265004D61696E004D33B5
:101EC0003033205531204525692053256900507253
:101ED00065686561742041425320636F6E660050EF
:101EE00072656865617420504C4120636F6E6600B6
:101EF000504944204175746F74756E6500504944B3
:101F0000204175746F74756E6500504944204175A9
:101F1000746F74756E65005049442D4400504944F7
:101F20002D44005049442D49005049442D4900504A
:101F300049442D50005049442D500020082046614E
:101F400063740020082046616374002008204D61FE
:101F500078002008204D6178002008204D6178002D
:101F60002008204D696E002008204D696E00200871
:101F7000204D696E004F6666004F6E2000417574FB
:101F80006F74656D700046616E20737065656400E6
:101F900046616E2073706565640046616E207370E3
:101FA00065656400426564004265640042656400E2
:101FB0004E6F7A7A6C65004E6F7A7A6C65004E6F60
:101FC0007A7A6C6500436F6E74726F6C0053746F35
:101FD00072652073657474696E677300426564008E
:101FE00042656400426564004E6F7A7A6C65004E0B
:101FF0006F7A7A6C65004E6F7A7A6C650046616E16
:102000002073706565640046616E20737065656459
:102010000046616E2073706565640054656D70657F
:10202000726174757265004732392053310047324E
:102030003920533200436C69636B20746F20426512
:1020400067696E00486F6D696E672058595A00477E
:1020500032380053746F72652073657474696E67EB
:1020600073004C6F61642073657474696E677300EC
:10207000426564205A00426564205A0046616465E6
:102080002048656967687400466164652048656931
:102090006768740046616465204865696768740014
:1020A0004F6666004F6E2000426564204C65766581
:1020B0006C696E67004C6576656C206265640050E3
:1020C000726570617265004D343238005072656817
:1020D00065617420504C4100436F6F6C646F776E84
:1020E0000050726568656174204142530043686125
:1020F0006E67652066696C616D656E74004368612A
:102100006E67652066696C616D656E74004D363072
:10211000302042300044697361626C6520737465DD
:102120007070657273004D38340053657420686FA9
:102130006D65206F66667365747300426564204C3C
:102140006576656C696E6700486F6D65205A00475B
:102150003238205A00486F6D6520590047323820C8
:102160005900486F6D6520580047323820580041AB
:1021700075746F20686F6D6500473238004D6F765B
:10218000652061786973004D61696E004D6F7665F9
:102190002058004D6F76652059004D6F7665205AA6
:1021A000004578747275646572004D6F76652030F5
:1021B0002E316D6D004D6F766520316D6D004D6F68
:1021C00076652031306D6D004D6F766520617869E0
:1021D00073004578747275646572004D6F76652082
:1021E0005A004D6F76652059004D6F766520580076
:1021F00020204E6F7A7A6C653A2000200066696C68
:10220000616D656E7420756E6C6F616400576169F5
:102210007420666F720020204E6F7A7A6C653A20C7
:10222000002000506C6561736520776169742E2E03
:102230002E0048656174696E67206E6F7A7A6C65EE
:102240000020204E6F7A7A6C653A20002000686585
:102250006174206E6F7A7A6C652E005072657373AC
:1022600020627574746F6E20746F0020204E6F7A38
:102270007A6C653A2000746F20636F6E74696E75B6
:10228000652E2E2E00616E6420707265737320625D
:102290007574746F6E00496E736572742066696C34
:1022A000616D656E740020204E6F7A7A6C653A20FD
:1022B00000200066696C616D656E74206C6F6164EE
:1022C000005761697420666F720020204E6F7A7A21
:1022D0006C653A2000200066696C616D656E742043
:1022E0007075726765005761697420666F7200745B
:1022F0006F20726573756D65005761697420666F34
:1023000072207072696E74004D3234004D32332089
:10231000257300556E6B6E6F776E20636F6D6D6108
:102320006E643A202200486F74656E6420746F6F8B
:1023300020636F6C640A00486F6D652025732573F8
:102340002573206669727374002066697273740A5B
:10235000005A0059005800486F6D65200053442012
:1023600063617264206F6B0A006F70656E526F6FED
:1023700074206661696C65640A00766F6C756D65C2
:102380002E696E6974206661696C65640A00534445
:1023900020696E6974206661696C0A0057726974FD
:1023A000696E6720746F2066696C653A20006F70F3
:1023B000656E206661696C65642C2046696C653ABF
:1023C00020006F70656E206661696C65642C204624
:1023D000696C653A200046696C652073656C6563BD
:1023E0007465640A002053697A653A200046696C76
:1023F00065206F70656E65643A20002066696C65C3
:102400003A2000646F696E67006672657368004EFB
:102410006F772000454E4420535542524F55544942
:102420004E450A002220706F730022207061726591
:102430006E743A2200535542524F5554494E45202E
:1024400043414C4C207461726765743A22004B49D9
:102450004C4C45442E2000747279696E6720746F6D
:102460002063616C6C207375622D67636F646520F7
:1024700066696C6573207769746820746F6F206D6E
:10248000616E79206C6576656C732E204D41582005
:102490006C6576656C2069733A004572726F723AAA
:1024A00000021FFFFFFFFFFFFF600000000001FFB1
:1024B000400000000000FF8000000000007F83CF8C
:1024C00000000C303F87FF80000C301F86798000B1
:1024D0000C000F8C30C7838C30E78C30CFC7CC31E9
:1024E000F38C30DCECEC33B98C30D86C6C33198C59
:1024F00030D06C0C33198C30D86C0C33198C30DC28
:102500006C0E3B198C30CF7C079F198C30C77C0335
:102510008F1940000000000002600000000000066B
:102520001FFFFFFFFFFFF82020506C616E6E657289
:1025300042756666657242797465733A200020467A
:10254000726565204D656D6F72793A2000436F6D3D
:1025500070696C65643A204A756C203231203230E3
:1025600031390A00207C20417574686F723A202846
:102570006E6F6E652C2064656661756C7420636F88
:102580006E666967290A00323031382D30372D33B5
:102590003100204C61737420557064617465643A35
:1025A00020006275676669782D312E312E780A0019
:1025B0004D61726C696E0020536F6674776172654D
:1025C0002052657365740A00205761746368646FF4
:1025D000672052657365740A002042726F776E201F
:1025E0006F75742052657365740A002045787465B0
:1025F000726E616C2052657365740A00506F776566
:102600007255700A0073746172740A006175746F98
:1026100025692E67006572726F722077726974691E
:102620006E6720746F2066696C650A00456E64737E
:10263000746F707320256320256320256320256334
:1026400000205A3A0020593A0020583A00656E643A
:1026500073746F7073206869743A2000446F6E65FC
:1026600020736176696E672066696C652E0A004D7D
:10267000323900454550524F4D2064617461736991
:102680007A65206572726F722E0A00290A00206234
:10269000797465733B2063726320005365747469B9
:1026A0006E67732053746F726564202800290A00D6
:1026B0002062797465733B20637263200020737419
:1026C0006F7265642073657474696E6773207265D8
:1026D00074726965766564202800202863616C63E4
:1026E000756C6174656429210A0020213D20004534
:1026F0004550524F4D20435243206D69736D6174B4
:102700006368202D202873746F726564292000206F
:1027100053697A653A2000496E6465783A20002052
:102720004D61726C696E3D563535290A0028454564
:1027300050524F4D3D00454550524F4D20766572E9
:1027400073696F6E206D69736D61746368200056E4
:1027500054726176206D696E005654726176206DF8
:10276000696E005654726176206D696E00566D690F
:102770006E00566D696E00566D696E00566D61781B
:10278000204500566D6178204500566D61782045E2
:1027900000566D6178205A00566D6178205A0056B7
:1027A0006D6178205A00566D6178205900566D6130
:1027B00078205900566D6178205900566D61782057
:1027C0005800566D6178205800566D617820580089
:1027D0004D6F74696F6E00416D6178204500416DE9
:1027E0006178204500416D6178205A00416D617823
:1027F000205A00416D6178205900416D617820595F
:1028000000416D6178205800416D61782058004189
:102810002D74726176656C00412D74726176656C01
:1028200000412D7265747261637400412D7265748C
:102830007261637400416363656C00416363656C3E
:10284000004D6F74696F6E0056652D6A65726B007E
:1028500056652D6A65726B0056652D6A65726B0050
:10286000567A2D6A65726B00567A2D6A65726B0016
:1028700056792D6A65726B0056792D6A65726B0008
:1028800056792D6A65726B0056782D6A65726B00F9
:1028900056782D6A65726B0056782D6A65726B00EA
:1028A0004D6F74696F6E004573746570732F6D6D35
:1028B000004573746570732F6D6D005A7374657085
:1028C000732F6D6D005A73746570732F6D6D0059A1
:1028D00073746570732F6D6D005973746570732F09
:1028E0006D6D005873746570732F6D6D005873743F
:1028F0006570732F6D6D004D6F74696F6E004B497D
:102900004C4C45442E200053544F505045442E20EB
:10291000005072696E7465722073746F70706564B4
:102920002064756520746F206572726F72732E203B
:1029300046697820746865206572726F7220616ED6
:102940006420757365204D39393920746F207265A4
:1029500073746172742E202854656D706572617491
:102960007572652069732072657365742E205365D6
:102970007420697420616674657220726573746175
:102980007274696E67290A004E6F20436865636B35
:1029900073756D2077697468206C696E65206E753B
:1029A0006D6265722C204C617374204C696E653ABF
:1029B00020004E6F20436865636B73756D207769E7
:1029C0007468206C696E65206E756D6265722C206E
:1029D0004C617374204C696E653A200063686563CE
:1029E0006B73756D206D69736D617463682C204C19
:1029F000617374204C696E653A20004C696E6520E5
:102A00004E756D626572206973206E6F74204C6123
:102A10007374204C696E65204E756D6265722B3142
:102A20002C204C617374204C696E653A20004D3146
:102A30003130004D333100534420726561642065AC
:102A400072726F720A00446F6E65207072696E74E4
:102A5000696E672066696C650A0020496E76616C54
:102A60006964206578747275646572200000008066
:102A7000C1000000C1000000000000704300007AA7
:102A80004300005C43486F6D696E67206661696C46
:102A9000656400486F6D65205859206669727374CB
:102AA0000A00486F6D65205859206669727374007A
:102AB000206E6F7420656E74657265642E0A007CEA
:102AC0003C3E5E2B3D3F2F5B5D3B2C2A225C004F42
:102AD00066660A0046616465204865696768742017
:102AE00000426564204C6576656C696E672000461F
:102AF00061696C656420746F20656E61626C65202D
:102B0000426564204C6576656C696E670A004D65A8
:102B1000736820426564204C6576656C206461743E
:102B2000613A0A004D65736820706F696E742063A6
:102B3000616E6E6F74206265207265736F6C76656E
:102B4000640A004D34323120696E636F72726563BE
:102B50007420706172616D65746572207573616750
:102B6000650A004D3630303A20546F6F20636F6C29
:102B70006400486F74656E6420746F6F20636F6CBF
:102B8000640A00496E736572742066696C616D65D4
:102B90006E7420616E642070726573732062757448
:102BA000746F6E0A00507265737320627574746F6F
:102BB0006E20746F2068656174206E6F7A7A6C6520
:102BC0000A00496E736572742066696C616D656E8A
:102BD0007420616E64207072657373206275747402
:102BE0006F6E20286F72204D313038290A00496EEF
:102BF000736572742066696C616D656E7420616EB8
:102C00006420707265737320627574746F6E20280F
:102C10006F72204D313038290A0053746570732F5C
:102C20006D6D004A65726B00416363656C6572612E
:102C300074696F6E0056656C6F6369747900436FD9
:102C40006E74726F6C004C6F6164206D6D004C6F20
:102C50006164206D6D004C6F6164206D6D00556E78
:102C60006C6F6164206D6D00556E6C6F6164206DDA
:102C70006D00556E6C6F6164206D6D0046696C2E41
:102C8000204469612E0046696C2E204469612E0043
:102C90004F6666004F6E20004520696E206D6D33D3
:102CA00000436F6E74726F6C0043616E6E6F7420C0
:102CB000656E746572207375626469723A200002F1
:102CC0002E2E004D61696E004D3730322054256440
:102CD000004D36303020423020542564004D3730CE
:102CE00032203B2564004D373031205425640043A9
:102CF00068616E67652066696C616D656E74005011
:102D00007265686561742041425300507265686560
:102D1000617420504C41004368616E6765206669AC
:102D20006C616D656E74005052494E54205041558F
:102D300053454400554E4C4F41442046494C414D6B
:102D4000454E54004C4F41442046494C414D454E60
:102D500054005075726765206D6F726500436F6E29
:102D600074696E756500524553554D45204F50545A
:102D7000494F4E533A0020204E6F7A7A6C653A20C4
:102D8000006368616E6765006F6620746865206621
:102D9000696C616D656E74005761697420666F724D
:102DA0002073746172740070012C0190012701B0CE
:102DB000012201C0011D01F00118011002130130B0
:102DC000020E016002090190020401C002FF00002E
:102DD00003FA004003F5008003F000D003EB00206D
:102DE00004E6007004E100E004DC004005D700C008
:102DF00005D2004006CD00D006C8008007C30030D1
:102E000008BE00F008B900C009B400B00AAF00B0B5
:102E10000BAA00D00CA500000EA000500F9B00C014
:102E20001096005012910000148C00C0158700B05D
:102E3000178200B0197D00D01B7800001E7300407F
:102E4000206E0090226900F024640040275F00900B
:102E5000295A00E02B5500102E500020304B001056
:102E6000324600E033410090353C001037370070A7
:102E7000383200A0392D00B03A2800A03B23006072
:102E80003C1E00103D1900903D1400103E0F0070D4
:102E90003E0A00C03E0500003F0000403FFBFF80AF
:102EA0003FF6FFC03FF1FF453120544845524D41A8
:102EB0004C2052554E4157415900424544205448F8
:102EC00045524D414C2052554E415741590054688E
:102ED00065726D616C2052756E6177617900453164
:102EE000204572723A204D415854454D500045726C
:102EF000723A204D415854454D5020424544004DB2
:102F0000415854454D502074726967676572656415
:102F1000004531204572723A204D494E54454D507E
:102F2000004572723A204D494E54454D502042455D
:102F300044004D494E54454D502074726967676591
:102F4000726564004D383420582059205A204500BD
:102F5000202F002042403A0020403A00000609009D
:102F6000FE000000000001090008FE00000508083E
:102F700006000040F0C88888987810050808060008
:102F800000C0F88888888888F805050506000120B3
:102F900030F830200508080600002070F8202020B6
:102FA00020E00509090600FF2070A8A8B8888870ED
:102FB000200509090600FFE080C0B0A828302828B5
:102FC0000509090600FFF8A88888888888A8F805F8
:102FD0000A0A0600FE205050505088A8A8887003A6
:102FE000030306000340A0406F70656E20666169B0
:102FF0006C65642C2046696C653A200043616E6EF6
:103000006F74206F70656E20737562646972200042
:103010006563686F3A004261627973746570205A23
:10302000004368616E67652066696C616D656E74EA
:10303000004368616E67652066696C616D656E74DA
:10304000004D363030204230004261627973746541
:1030500070205A00466C6F7700466C6F7700466CA4
:103060006F770046616E2073706565640046616E1F
:103070002073706565640046616E207370656564D9
:10308000004265640042656400426564004E6F7AE8
:103090007A6C65004E6F7A7A6C65004E6F7A7A6C46
:1030A000650046616465204865696768740046612B
:1030B00064652048656967687400466164652048F6
:1030C000656967687400426564205A00426564203F
:1030D0005A005370656564005370656564005370F1
:1030E000656564004D61696E005072656865617464
:1030F00020504C4120456E640050726568656174D3
:1031000020504C41204265640050726568656174CE
:1031100020504C41005072657061726500507265BC
:10312000686561742041425320456E6400507265A9
:1031300068656174204142532042656400507265A5
:103140006865617420414253005072657061726518
:10315000004C6576656C696E6720446F6E65210072
:103160004D6F7665205A00473239205332004E6544
:10317000787420506F696E74002569202F202575A2
:1031800000627573793A2070617573656420666FAB
:103190007220696E7075740A00627573793A2070D6
:1031A000617573656420666F7220757365720A00BD
:1031B000627573793A2070726F63657373696E67B5
:1031C0000A004B494C4C45442E20004B494C4C20A6
:1031D00063617573656420627920746F6F206D750B
:1031E000636820696E6163746976652074696D65D2
:1031F000202D2063757272656E7420636F6D6D6132
:103200006E643A20004D36303000506C6561736555
:10321000207265736574005052494E5445522048DF
:10322000414C544544005072696E74657220686167
:103230006C7465642E206B696C6C28292063616C4A
:103240006C6564210A00656E7175657565696E67E8
:10325000202200000080C1000000C100000000002A
:1032600000C8420000C8420000A041000000005712
:1032700061726E696E673A20486F6D696E672042B1
:10328000756D702044697669736F72203C20310A35
:10329000000202040000A0400000A0400000004026
:1032A000000080430000814300005C43FFFFFFFFFC
:1032B000FDFCFAF8F6F4F2F0EEECEAE9E7E5E3E11A
:1032C000E0DEDCDAD9D7D5D4D2D0CFCDCBCAC8C7CF
:1032D000C5C3C2C0BFBDBCBAB9B7B6B4B3B2B0AF54
:1032E000ADACAAA9A8A6A5A4A2A1A09E9D9C9A99AE
:1032F000989795949392908F8E8D8B8A89888786E4
:1033000084838281807F7E7D7B7A797877767574FD
:10331000737271706F6E6D6C6B6A696867666564F5
:10332000636261605F5E5D5C5B5A595858575655E1
:103330005453525150504F4E4D4C4B4A4A494847B6
:103340004646454443424241403F3E3E3D3C3B3B76
:103350003A39383837363535343332323130302F28
:103360002E2E2D2C2B2B2A292928272726252524CC
:10337000232322212120201F1E1E1D1C1C1B1B1A63
:1033800019191818171616151514131312121111EE
:10339000100F0F0E0E0D0D0C0C0B0A0A0909080870
:1033A000070706060505040403030202010000489E
:1033B000617264636F6465642044656661756C74F2
:1033C0002053657474696E6773204C6F6164656423
:1033D0000A00B80B0000B80B00004B000000881377
:1033E00000000000C8430000C8430000C8430000BC
:1033F00034429A99A0429A99A1420000C843000021
:10340000BA4220286D6D290020204D36303320002F
:103410002055004C0046696C616D656E74206C6FC0
:1034200061642F756E6C6F6164206C656E67746883
:10343000733A0A0020440020490020204D333034E4
:1034400020500020440020490020204D33303120FE
:1034500050005049442073657474696E67733A0A6A
:103460000020460020420020480020204D31343505
:103470002053004D6174657269616C2068656174E8
:10348000757020706172616D65746572733A0A00BF
:10349000205A002059002020473239205333205829
:1034A00000205A0020204D3432302053004D6573E7
:1034B0006820426564204C6576656C696E673A0ADF
:1034C00000205A0020590020204D3230362058006C
:1034D000486F6D65206F66667365743A0A00204513
:1034E00000205A002059002058002054002053008A
:1034F00020204D32303520510020453C6D61785FF1
:10350000655F6A65726B3E0020583C6D61785F783C
:103510005F6A65726B3E20593C6D61785F795F6AC6
:1035200065726B3E205A3C6D61785F7A5F6A6572A6
:103530006B3E00416476616E6365643A20513C6D78
:10354000696E5F7365676D656E745F74696D655FE5
:1035500075733E20533C6D696E5F6665656472618C
:1035600074653E20543C6D696E5F74726176656C63
:103570005F66656564726174653E00205400205288
:103580000020204D323034205000416363656C656B
:10359000726174696F6E2028756E6974732F73324F
:1035A000293A20503C7072696E745F616363656C88
:1035B0003E20523C726574726163745F616363653F
:1035C0006C3E20543C74726176656C5F6163636528
:1035D0006C3E0A00204500205A0020590020204D52
:1035E0003230312058004D6178696D756D2041632E
:1035F00063656C65726174696F6E2028756E69749D
:10360000732F7332293A0A00204500205A002059AE
:103610000020204D3230332058004D6178696D759F
:103620006D206665656472617465732028756E69C6
:1036300074732F73293A0A00204500205A0020593C
:103640000020204D3932205800537465707320706B
:10365000657220756E69743A0A0020204D32303050
:103660002044300A0020204D3230302044002044D5
:10367000697361626C65640A0046696C616D656EB0
:10368000742073657474696E67733A0020204D313D
:1036900034392043203B20556E69747320696E20B5
:1036A00043656C736975730A00202047323120200E
:1036B00020203B002569730025696D202569730072
:1036C0002569682025696D202569730025696420B6
:1036D0002569682025696D20256973002569792091
:1036E000256964202569682025696D202569730096
:1036F00000002100240027002A002D0030003300A4
:1037000001010000040107010A0100002200250058
:1037100028002B002E0031003400020100000501BA
:1037200008010B01000020002300260029002C00C6
:103730002F00320000010000030106010901050508
:103740000505070508080808020202020A0A080817
:103750000404040401010101010101010303030345
:1037600003030303040707070C0C0C0C0C0C0C0CD4
:103770000202020206060606060606060B0B0B0BE5
:103780000B0B0B0B0102102020080810204010200A
:103790004080020102010804020101020408102015
:1037A0004080804020100804020180040201804013
:1037B000201008040201080402010102040810207C
:1037C0004080010204081020408000000A0B02091A
:1037D0000C0D0E08070304010000000000000000AB
:1037E00000000000000000000000000000000000D9
:1037F0000000000000001211100000000000000096
:1038000000000000000000000000000000000000B8
:10381000545249474745524544006F70656E003A1F
:10382000200066696C616D656E74007A5F6D696E0B
:1038300000795F6D696E00785F6D696E005265702A
:103840006F7274696E6720656E6473746F70207335
:1038500074617475730A000A4D65617375726564ED
:1038600020706F696E74733A0A005A206F6666732F
:1038700065743A20004E756D20582C593A20352C2D
:10388000350A000000000100000001000080005522
:103890005555000000400033333300AAAA2A0049DE
:1038A00092240000002000C7711C0099991900D1D2
:1038B000451700555515003BB1130024491200115E
:1038C000111100000010000F0F0F00E3380E00432D
:1038D000790D00CCCC0C00C3300C00E8A20B0064C6
:1038E000210B00AAAA0A00703D0A009DD8090042D7
:1038F0007B090092240900DCD308008888080010A6
:1039000042080000000800F0C10700878707007523
:10391000500700711C07003EEB0600A1BC060069C1
:1039200090060066660600703E06006118060017E5
:10393000F4050074D105005BB00500B2900500628B
:103940007205005555050078390500B81E050005BB
:103950000505004EEC040087D40400A1BD040090CE
:10396000A7040049920400C17D0400EE690400C769
:10397000560400444404005C320400082104004161
:10398000100400000004003FF00300F8E0030026EC
:10399000D20300C3C30300CCB503003AA803000A56
:1039A0009B0300388E0300C08103009F750300D085
:1039B000690300505E03001D530300344803009167
:1039C0003D03003333030016290300381F0300971B
:1039D000150300300C0300030303000BFA02004937
:1039E000F10200BAE802005CE002002DD802002DCE
:1039F000D0020059C80200B0C0020031B90200DA9A
:103A0000B10200AAAA0200A0A30200BC9C0200FA14
:103A10009502005C8F0200DF88020082820200456E
:103A20007C02002776020027700200436A02007CB5
:103A3000640200D05E02003F590200C853020045F4
:103A400072726F722077726974696E6720746F206A
:103A5000454550524F4D210A00526573656E643AD8
:103A600020006F6B0020746F6F206C6F6E67206595
:103A70007874727573696F6E2070726576656E7496
:103A800065640A0020636F6C6420657874727573D6
:103A9000696F6E2070726576656E7465640A006287
:103AA00065640A002C2073797374656D2073746FDC
:103AB0007070656421204865617465725F49443A9D
:103AC00020004265642068656174696E67206661E4
:103AD000696C65640048656174696E672066616938
:103AE0006C65640045312048656174696E672066C5
:103AF00061696C65640048656174696E6720666120
:103B0000696C656400000001100111241FBECFEF35
:103B1000D1E2DEBFCDBF00E00CBF13E0A0E0B2E019
:103B2000EEEFF0E602E00BBF02C007900D92A63761
:103B3000B107D9F726E1A6E7B3E001C01D92AB3982
:103B4000B207E1F71DE1C4E8DDE100E006C021971E
:103B50000109802FFE010F94D02FC338D10780E0D8
:103B60000807A9F70F94891B0D946E300C94000080
:103B70002F923F924F925F926F927F928F929F927D
:103B8000AF92BF92CF92DF92EF92FF920F931F936B
:103B9000CF93DF93CDB7DEB7C154D1090FB6F894F8
:103BA000DEBF0FBECDBF21E02093BB0D8091AB15D2
:103BB0008D3409F469C5843511F40C945831873477
:103BC00011F00C94A4318091A9159091AA158B3114
:103BD000910509F40EC2A4F48430910534F48230C6
:103BE000910594F597FF29C04BC58430910509F4E0
:103BF000C1C14A9709F044C50E943B360C94A631D6
:103C00008A32910509F431C444F48C31910509F4E8
:103C100020C24D9709F422C233C58B35910509F4B2
:103C2000AFC48C35910509F4AFC48A35910509F00C
:103C300027C510927B030C94A63180915F028111FD
:103C40000C94AB310C94A63120915F02222311F425
:103C50000C94A63111E0029709F010E00E94C8B060
:103C600019821A821B821C821D821E821F82188664
:103C700082E50E94D434882309F42CC10E94543474
:103C80004B015C0120E030E0A9010F945728882304
:103C900009F436C120914D0530914E0540914F05F4
:103CA000509150052EA33FA348A759A74091510515
:103CB0005091520560915305709154054AA75BA736
:103CC0006CA77DA760916105709162058091630585
:103CD000909164056EA77FA788AB99AB809165052D
:103CE00090916605A0916705B09168058AAB9BAB82
:103CF000ACABBDAB2EA53FA548A959A96EA17FA12C
:103D000088A599A50F94572881110DC02AA93BA910
:103D10004CA95DA96AA57BA58CA59DA50F945728E4
:103D2000882309F4EDC020E030E0A901C501B40109
:103D30000F945728881F8827881F181749F020E0FC
:103D400030E040E85FEB2AAF3BAF4CAF5DAF08C05F
:103D500040E050E060E87FE34AAF5BAF6CAF7DAF1F
:103D60002EA13FA148A559A56EA57FA588A999A90F
:103D70000F94D32C6EAB7FAB88AF99AF2AA53BA530
:103D80004CA55DA56AA97BA98CA99DA90F94D32CEC
:103D90006B017C012EA93FA948AD59ADCA01B901FB
:103DA0000F94BC282B013C01A7019601C701B60165
:103DB0000F94BC289B01AC01C301B2010F94D42C19
:103DC0000F943F2F2B013C0120E030E040E05FE307
:103DD0000F94BC2822966CAF7DAF8EAF9FAF229719
:103DE000A5019401C501B4010F94BC284B015C01ED
:103DF00022962CAD3DAD4EAD5FAD2297CA01B90103
:103E00000F94BC289B01AC01C501B4010F94D32CC5
:103E10000F943F2F2AAD3BAD4CAD5DAD0F94BC2848
:103E20004B015C01C701B6019058A30192010F94A8
:103E3000B02DA50194010F94BC286B017C012EA527
:103E40003FA548A959A96EA17FA188A599A50F945E
:103E5000D42C20E030E040E05FE30F94BC289B01CD
:103E6000AC01C701B6010F94D42C2EA13FA148A5E7
:103E700059A50F94D32C69837A838B839C832AA9B9
:103E80003BA94CA95DA96AA57BA58CA59DA50F940E
:103E9000D42C20E030E040E05FE30F94BC286B01BD
:103EA0007C01A30192016EA97FA988AD99AD0F9401
:103EB000B02DA50194010F94BC289B01AC01C70152
:103EC000B6010F94D42C2AA53BA54CA55DA50F9453
:103ED000D32C12C089E40E94D434882331F00E948C
:103EE000543469837A838B839C838AE40E94D4341C
:103EF000882331F00E9454346D837E838F839887AA
:103F000020E030E0A90169817A818B819C810F9446
:103F1000572881110EC020E030E0A9016D817E811B
:103F20008F8198850F945728811103C0EAE9F4E244
:103F30000DC0412FBE016F5F7F4F81E695E00E946B
:103F400016EA0C94A6310E940AFFF80184918F01B1
:103F50000F5F1F4F8111F7CFE9EEF2E084918F01DF
:103F60000F5F1F4F882311F40C94A6310E940AFFA3
:103F7000F801F4CF80E50E94D434882329F00E9410
:103F800018FE6B017C0103C0C12CD12C760183E5A6
:103F90000E94D434882361F00E94543420E030E041
:103FA0004AE754E40F94BC280F941D2E6B017C014A
:103FB0000E9413618091500A811105C060E08FEF6B
:103FC00092E00E94AF740E94EE9AC60ED71EE81EC1
:103FD000F91E0E94EE9ADC01CB018C199D09AE09F5
:103FE000BF09B7FD02C00C94A63180E00E949CE698
:103FF000F0CF0E94229881110C94A63180E090E0CD
:10400000A0E5B1EC89839A83AB83BC8380E090E028
:10401000ADE7B3E48D839E83AF83B88780E090E003
:10402000A0E2B1E489879A87AB87BC8780E50E94CC
:10403000D434882319F00E94243401C060E068A3BE
:10404000BE016F5F7F4FCE0180960F9447090C949D
:10405000A63180E00E94DEB40C94A63183E50E9474
:10406000D434882399F00E943434182F863080F09D
:10407000E8EBF3E084918F010F5F1F4F882311F469
:104080000C94A6310E940AFFF801F4CF10E010C092
:10409000833009F44DC130F4813081F1823009F46C
:1040A00041C006C0843009F4AEC1853009F4BBC1FB
:1040B0000E9447B2811103C0E8E9F3E013C0809188
:1040C000EB04882319F062E273E002C066E273E059
:1040D00080E993E00E949FEF8AE00E940AFF0F941C
:1040E000DD09A7C184917F015FEFE51AF50A8823F6
:1040F00009F49FC10E940AFFF701F4CF0F94900AC0
:1041000010920102109200028091E10481110AC014
:1041100085E893E090931205809311050E9472FD4B
:104120000C94A631809100029091010297FF0EC07D
:10413000ECE5F3E084918F010F5F1F4F882311F4AA
:104140000C94A6310E940AFFF801F4CF0097A1F465
:1041500080912B0280937C0319821A821B821C821D
:1041600018A219A21AA21BA2BE016F5F7F4FCE0137
:1041700080960E94C0B427C0815065E00F949C2FA8
:1041800080FF03C024E0291B922F65E09602F00116
:104190001124E80FF11D87FDFA95EE0FFF1FEE0FBA
:1041A000FF1FEF5DFA4E8091550590915605A09145
:1041B0005705B091580580839183A283B383809182
:1041C0007C0380932B02809100029091010289313F
:1041D00091050CF066C010922B029C012F5F3F4F9F
:1041E000309301022093000265E00F949C2F80FF22
:1041F00003C024E0291B922F40915505509156058C
:10420000609157057091580548A359A36AA37BA3F1
:1042100019821A821B821C8274E087029001112489
:10422000D901A053B54F4D012D913D914D915C9118
:10423000B4E09B02C0011124FC01EC51F54F5F0179
:104240006081718182819381DE0111966D01E12C83
:10425000F12C00EA10E40E94B0B319821A821B828A
:104260001C82B601CE0180960E94C0B4F501808107
:104270009181A281B38180934D0590934E05A093C7
:104280004F05B0935005F40180819181A281B381E3
:104290008093510590935205A0935305B093540514
:1042A00044C080E090E0A0EAB0E48093550590938C
:1042B0005605A0935705B09358050E9459B30E9424
:1042C00013618FEF9FEF9093010280930002E8E467
:1042D000F3E084918F010F5F1F4F882321F00E942C
:1042E0000AFFF801F6CF83E992E09A83898304E616
:1042F00010E019A308A3BE016F5F7F4FCE01809627
:104300000E94B5D98AEB92E09A83898319A308A306
:10431000BE016F5F7F4FCE0180960E94B5D981E0CC
:104320000E94DEB481E00E9474B21092E10483C066
:1043300088E50E94D4348823D1F00E9424341FEFF2
:10434000160F1530D8F065E070E085E393E00E9429
:1043500086EFE2E3F3E084918F010F5F1F4F882324
:1043600011F40C94A6310E940AFFF801F4CF88E5FD
:104370000E940AFF0F9467200C94A63189E50E94E1
:10438000D4348823D1F00E9424340FEF060F053077
:10439000D8F065E070E08FE193E00E9486EFECE1F9
:1043A000F3E084918F010F5F1F4F882311F40C9469
:1043B000A6310E940AFFF801F4CF89E50E940AFFA6
:1043C0000F9467200C94A6318AE50E94D434882388
:1043D00099F00E94543425E0129FF0011124E00F5F
:1043E000F11DEE0FFF1FEE0FFF1FEF5DFA4E608312
:1043F00071838283938335C08AE50E940AFF0F94FC
:1044000067200C94A6318AE50E94D4348823A1F356
:104410000E9454346093E3047093E4048093E504B1
:104420009093E6041EC080E00E9474B20F94900A3C
:1044300018C01230B1F4609100027091010269312C
:10444000710514F069E170E08DE093E00E9486EF61
:1044500069E170E088E093E00E9486EF8AE00E94C4
:104460000AFF0E943D680C94A63180915F02882368
:1044700011F40C94A63189E40E94D434E82E8823E8
:1044800021F00E942434062F01C000E08AE40E943B
:10449000D434F82E882321F00E942434162F01C032
:1044A00010E0EE2011F0053020F4FF2081F01530EF
:1044B00070F0EFECF3E084918F010F5F1F4F8823C2
:1044C00011F40C94A6310E940AFFF801F4CF0E9467
:1044D000EE34EE2091F034E00302F0011124EC51AF
:1044E000F54F80819181A281B38180936105909382
:1044F0006205A0936305B0936405FF2091F044E04A
:104500001402F0011124E053F54F80819181A281C2
:10451000B3818093650590936605A0936705B0937A
:10452000680580E50E94D434882319F00E94453440
:1045300003C080E50E948B3486E40E94D434882333
:10454000D9F00E9454346B017C0120E030E0A901D5
:104550000F94FA2E181684F420E030E040E752E47D
:10456000C701B6010F94B02D6093420270934302CD
:1045700080934402909345020F94CC100C94A63182
:1045800020937B030C94A63164E6262E62E0362E3F
:104590007BECE72E7DE0F72E6DE475E07FA36EA344
:1045A000ECEECE2EE4E0DE2E00E010E0D1018D91A5
:1045B0001D010E94D434882309F44BC00E94543456
:1045C0002B013C01133049F0F601208131814281F9
:1045D00053810F94D32C2B013C01AEA1BFA12D918F
:1045E0003D914D915C91C301B2010F94D32C4B01CD
:1045F0005C012DEB37E346E855EB0F94FA2E87FD6F
:104600000AC02DEB37E346E855E3C501B4010F942A
:1046100057281816F4F4133051F44092590550926B
:104620005A0560925B0570925C0501E012C0A5011D
:104630009401F70160817181828193810F94D42C60
:10464000D7016D937D938D939C931397812F0E9437
:1046500027B61F5FB4E0EB0EF11CEEA1FFA134966C
:10466000FFA3EEA3F4E0CF0ED11C143009F09ECFCF
:10467000002309F4F6CE89E595E00E94BF97F1CEBC
:104680000E94F4990C94A6318091A9159091AA15D5
:104690008537910509F4B5C70CF0C1C08C3491057C
:1046A00009F4CCC40CF058C08931910509F4AFC2AB
:1046B0001CF58431910509F4BBC17CF4813191056D
:1046C00009F431C22CF4029708F4B5C10C945531A9
:1046D000429709F428C60C9455318631910509F4A6
:1046E0006FC20CF469C28731910509F46FC2489713
:1046F00009F482C20C9455318E31910509F43DC301
:1047000084F48B31910509F496C20CF486C28C3185
:10471000910509F428C34D9711F40C94A6310C941B
:1047200055318A32910509F430C44CF48F3191052A
:1047300009F401C4809709F4B2C30C945531813354
:10474000910509F456C48B34910511F00C94553140
:104750000E94BAEF0C94A6318936910509F43CC544
:1047600044F58335910509F4DAC59CF48E3491053E
:1047700009F46CC40CF466C48135910509F4B8C51C
:104780008235910511F00C94553110927A030C94F6
:10479000A6318535910509F4F9C50CF4C4C58C35ED
:1047A000910509F40CC68836910509F453C40C949C
:1047B00055318E36910509F478C49CF48B369105F9
:1047C00009F484C50CF464C58C36910509F4D3C48E
:1047D0008D36910511F00C9455310E94EF6B0C94BD
:1047E000A6318137910509F4CAC46CF48F3691055E
:1047F00009F46EC48037910511F00C94553184ECA6
:1048000094E00E943AE68237910509F460C6833746
:10481000910511F00C945531E5ECF5E097C68D3219
:1048200031E0930711F40C94FB2E0CF081C0893C0D
:10483000910511F40C942D2C7CF58C38910509F41C
:104840000DC5ACF48737910509F436C70CF4E8C6FA
:104850008837910509F433C78937910511F00C9415
:1048600055311092A3071092A2070C94A6318B39F0
:10487000910509F4CCC434F48139910509F425C7B4
:104880000C9455318E3B910509F4FEC4883C91058A
:1048900009F493C70C945531833D910511F40C94A0
:1048A0002E2E3CF58C3C910511F40C94612C64F493
:1048B0008B3C910511F00C945531A4E6EA2EA2E050
:1048C000FA2E0DE419E0EFC78D3C910511F40C941C
:1048D000D22C8E3C910511F00C945531E4E6CE2E8D
:1048E000E2E0DE2EF5EAEF2EF7E0FF2E10E00C946A
:1048F0004C2D823E910511F40C94A82E64F48C3D4D
:10490000910511F40C94312E8D3D910511F40C9408
:104910003C2E0C945531823251E0950711F40C94E1
:10492000CD2E8C32914011F40C94D62E0C9455312E
:10493000843F71E0970711F40C947C30E4F58039E2
:10494000B1E09B0711F40C947330C4F48F32F1E0A2
:104950009F0711F40C94E32F14F40C94932F8033DD
:1049600031E0930711F40C94E62F8336914011F057
:104970000C945531EAE9F4E20C946030843A51E049
:10498000950711F40C9476304CF48A39914011F06B
:104990000C9455310E94ECC70C94A631853AA1E0E5
:1049A0009A0711F40C9479308C3A914011F40C94DC
:1049B0005C2D0C9455318C30E2E09E0711F40C9480
:1049C000B330B4F4863F21E0920711F40C948230A6
:1049D00014F40C947F30873F41E0940711F40C9459
:1049E0008530883F914011F40C948F300C945531F0
:1049F0008B3863E0960711F40C94A6316CF488357B
:104A0000A2E09A0711F40C94BB308B35924011F45C
:104A10000C94BE300C945531803AE3E09E0709F4C3
:104A20007DC2873E934011F40C9443310C94553170
:104A3000E9E1F4E083C0A090A715B090A81580E547
:104A40000E94D434882359F00E9418FE6B017C0127
:104A500011E0672B682B692B31F410E004C010E0E3
:104A6000C12CD12C760183E50E94D434882311F423
:104A70000C94B0310E94543420E030E04AE754E412
:104A80000F94BC280F941D2E6B017C0111110BC0DB
:104A9000672B682B692B39F4A114B10421F0D501DF
:104AA0008C91811102C010E001C011E00E941361DD
:104AB000112329F061E0C5010E94E97405C060E09E
:104AC0008EEE93E00E94AF7483E08093BB0D81E093
:104AD0008093A704C114D104E104F104B1F00E9451
:104AE000EE9AC60ED71EE81EF91E0E94EE9ADC0151
:104AF000CB018C199D09AE09BF09B7FF0EC080918B
:104B0000A70481110C94B53108C08091A7048823B3
:104B100021F080E00E949CE6F8CF0E947C4A10922F
:104B2000A7040C94A63160E081E094E00E94AF7489
:104B30004298179815982E980C94A63184918F015D
:104B40000F5F1F4F882321F00E940AFFF801F6CF64
:104B50001092960D89E49BE00E94C8BB8BE1E9E4CA
:104B6000FBE0DE01159601900D928A95E1F78091A8
:104B7000470B9091480B9C838B8382E093E09A8350
:104B8000898340E050E0BE016F5F7F4F80E090E09E
:104B90000E94CADACE0101960E941EE6EAE0F4E025
:104BA00084918F010F5F1F4F882311F40C94A6315D
:104BB0000E940AFFF801F4CF0E948D940C94A63154
:104BC0001092180B1092190B0C94A631E091A715B6
:104BD000F091A8158081882329F0803209F4108291
:104BE0003196F8CF40E061E08091A7159091A8152B
:104BF0000E94A9920C94A6318091190B882319F078
:104C000081E08093180B0E94BAEF0C94A6311092A9
:104C1000180B0F94891A0C94A6318091190B8823D4
:104C200011F40C94A63183E50E94D43481110C94C4
:104C3000BA310C94A63183E40E948B34882309F4A2
:104C400050C0E7E5F4E084918F010F5F1F4F882388
:104C500021F00E940AFFF801F6CF8091E40C811147
:104C600003C0EAE2F4E012C0BE016F5F7F4F81EE45
:104C70009CE00E9490BA8E010F5F1F4FF801819156
:104C80008F01882349F10E940AFFF8CF84918F0198
:104C90000F5F1F4F882301F10E940AFFF801F6CF32
:104CA0005FEAC52E54E0D52EE12CF12C20E0809156
:104CB0001E0590E00E2C02C0959587950A94E2F7A8
:104CC00080FD36C2EFEFEE1AFE0AF2E0CF0ED11CE5
:104CD00035E0E316F10459F78AE00E940AFF0C94CC
:104CE000A6318091190B882339F08091180B882305
:104CF00019F0E4E3F4E003C0E6E4F4E028C08491B2
:104D00008F010F5F1F4F882321F00E940AFFF801D7
:104D1000F6CF6091920D7091930D8091940D9091CA
:104D2000950D4AE00E9411FF8FE20E940AFF6091F8
:104D30008E0D70918F0D8091900D9091910D4AE0A4
:104D40000E9411FF8AE00E940AFF0C94A631849110
:104D50008F010F5F1F4F882311F40C94A6310E941E
:104D60000AFFF801F4CF40E060E08091A715909130
:104D7000A8150E94A9920C94A6318091190B882342
:104D800011F40C94A63181EE9CE00F940B0F81EE90
:104D90009CE00E946BBA1092170B1092160B809138
:104DA000190B882311F40C94A6310091A7151091CA
:104DB000A8150E94BBDAB801CE0180960E94D1DC12
:104DC0008C01892B11F40C94A63168A179A161158D
:104DD000710511F06C5F7F4F19821C8222E0A801DF
:104DE000CE0101960E94FEBF811102C0F12C14C0B9
:104DF000CE0101960E9429DA8823C1F361E0CE0139
:104E000001960E9474BA009789F325EEDC012C9379
:104E10001C820F94B40CF82ECE0101960E9404FF60
:104E2000F11003C0E4E7F4E022C0E6E6F4E0849188
:104E30007F01BFEFEB1AFB0A882321F00E940AFFD3
:104E4000F701F5CFF80181918F01882319F00E94B5
:104E50000AFFF8CF8AE00E940AFF1092920D10928A
:104E6000930D1092940D1092950D0C94A63184918F
:104E70007F012FEFE21AF20A882321F00E940AFF35
:104E8000F701F5CFD8018D918D01882319F00E948B
:104E90000AFFF8CF8EE20E940AFF0C94A63180919F
:104EA000180B81110E9413618091190B882311F452
:104EB0000C94A63180E50E94D434882319F00E9416
:104EC000453403C080E50E948B34182F482F61E0E1
:104ED0008091A7159091A8150E94A99283E50E9440
:104EE000D434882381F00E942434AB01BC01409368
:104EF000920D5093930D6093940D7093950D81EEE8
:104F00009CE00E9481B98091190B882319F081E0FF
:104F10008093180B11110C94A63175CE8091A715B2
:104F20009091A81521E02093170B40E060E00E94CB
:104F3000A9920C94A6310F943A1A68A379A38AA374
:104F40009BA3BE016F5F7F4FCE0180960E9428FE1B
:104F500060E0CE0101960E94E974E0E1F0E3849103
:104F60008F010F5F1F4F882321F00E940AFFF80175
:104F7000F6CFBE016F5F7F4F8CE894E00E949FEFF9
:104F80008AE00E940AFF0C94A63183E50E94D43483
:104F9000882311F40C94A6310E943434E82E80E565
:104FA0000E94D434882339F00E943434182F87FFAC
:104FB00003C00C94A63116E089E40E94D4348823FF
:104FC00041F00E94453481110C946032EDE3F7E02A
:104FD0000BC089E40E948B34F6CF3196B7E0EA36F5
:104FE000FB0711F40C94603284911813F6CF0C94E3
:104FF000FC31F090760381E0F826F0927603E4EA43
:10500000F4E084918F010F5F1F4F882321F00E94ED
:105010000AFFF801F6CFFF2019F0E9E9F4E002C039
:10502000EEE9F4E084918F010F5F1F4F882311F4A4
:105030000C94A6310E940AFFF801F4CF0F94891A4C
:105040000C94A6310E9401F00C94A6310E94D76AFC
:105050000C94A63188E690E00E9467B681110C940A
:10506000A63180911E0583FF02C00C94A63183E512
:105070000E94D4348823A9F00E9454340F94182E2F
:10508000CB010E9439740E94543420E030E04AEA97
:1050900052E40F945728181624F00E9401F00E9441
:1050A0007C4A0E94B3F10C94A6318EE40E94D43461
:1050B000882311F40C94A6310E94243460937E0757
:1050C00070937F0780938007909381070C94A6319B
:1050D00083E50E948B34882359F083E50E94D43401
:1050E000882319F00E94343401C080E080931E05AB
:1050F000E0E1F0E384918F010F5F1F4F811103C046
:10510000EDEBF4E004C00E940AFFF801F3CF8491B4
:105110008F010F5F1F4F882321F00E940AFFF801C3
:10512000F6CF80911E058111BBCDE9EBF4E018C0EC
:10513000BB24B394B20E222319F08CE20E940AFF22
:10514000F60185919491FC0184918F010F5F1F4FAF
:10515000882321F00E940AFFF801F6CF2B2DB2CD53
:1051600084918F010F5F1F4F882309F4B5CD0E94F2
:105170000AFFF801F5CF10922C020C94A63183E5BA
:105180000E94D434811103C0E0E1F0E30DC00E941D
:1051900034348D3320F4809346020C94A6318CE392
:1051A000809346020C94A63184918F010F5F1F4FAC
:1051B000882321F00E940AFFF801F6CF40914602B1
:1051C00050E060E070E08DEC94E00E944CEF8AE0EB
:1051D0000E940AFF0C94A63189E690E00E9467B60F
:1051E000811111C0E4EDF4E084918F010F5F1F4F36
:1051F000882321F00E940AFFF801F6CF0E94CCCF4D
:105200008AE00E940AFF1092BB0D0C94753283E570
:105210000E94D434882311F40C94A6310E943434B3
:10522000182F8D3308F01CE31093CA0D0E94EE9ADC
:105230006B017C01212F30E0A8EEB3E00F94C42C69
:10524000C60ED71EE81EF91EC092C60DD092C70D1D
:10525000E092C80DF092C90D0C94A63180911E0504
:1052600083FF02C00C94A63183E50E94D4348823C6
:1052700011F40C94A6310E9454340F94182ECB01D3
:105280000E94E0340C94A6310E9407690C94A63168
:1052900080E50E94D434811106C083E50E94D43495
:1052A000882361F006C00E94343481110C94A63129
:1052B000F4CF0E9424346F3F710510F06FEF70E05F
:1052C00070931614609315140C94A63180E50E9417
:1052D000D434811106C010921614109215140C9437
:1052E000A6310E942434672B11F00C94A631F3CF21
:1052F0000E9472D30E9451611092161410921514DC
:1053000068EE73E080E090E00E949F730E944EB9C7
:1053100060E087ED94E00E94AF740C94A631209376
:105320007A030C94A63183E50E94D434882399F043
:105330000E94543420E030E04AE754E40F94BC2843
:105340000F941D2E60934702709348028093490288
:1053500090934A02FBC788E50E948B3481110C941C
:10536000CA3189E50E948B3481110C94CA318AE5D7
:105370000E948B3481110C94CA3185E40E948B34D5
:1053800081110C94CA310E945161E0C783E50E94EB
:105390008B34882309F4DAC70E94543420E030E0CB
:1053A0004AE754E40F94BC280F941D2E6093C00D5F
:1053B0007093C10D8093C20D9093C30DC7C734E69F
:1053C000C32E32E0D32E45E3E42E45E0F42E10E068
:1053D000D6018D916D010E948B34882309F46DC034
:1053E000133009F063C00E9454344B015C0120E08B
:1053F00030E040EA51E40F94572887FF4EC0A501E2
:10540000940160914105709142058091430590910E
:1054100044050F94B02D2B013C019B01AC01609120
:1054200085097091860980918709909188090F9468
:10543000BC286093850970938609809387099093AF
:105440008809A30192016091590970915A098091CC
:105450005B0990915C090F94BC2860935909709383
:105460005A0980935B0990935C096091070E7091D3
:10547000080E8091090E90910A0E0F945B28A301EB
:1054800092010F94BC280F941D2E6093070E709309
:10549000080E8093090E90930A0E80924105909217
:1054A0004205A0924305B092440507C00E945434BF
:1054B000F70160837183828393831F5FF4E0EF0EB3
:1054C000F11C143009F084CF0E9418F33FC70E94EA
:1054D000136183E50E94D434882311F40C943122A3
:1054E0000E9424346230710511F00C9431220F9423
:1054F000A5148BE50E940AFF60912E1670912F165D
:10550000809130169091311642E00E9496FF4091B2
:10551000321650913316609134167091351683EE21
:1055200094E00E9469EF40913616509137166091D1
:1055300038167091391680EE94E00E9469EF8DE57F
:105540000E940AFF8AE00E940AFF00C784918F012F
:105550000F5F1F4F882321F00E940AFFF801F6CF4A
:1055600060E085EB95E00E94066861E08EEA95E0D8
:105570000E94066861E083EA95E00E94066861E0A7
:1055800083E995E00E94066860E08AE895E00E9461
:10559000066861E080E895E00E94066860E086E7C2
:1055A00095E00E94066860E08EE695E00E9406683D
:1055B00061E080E695E00E94066860E082E595E0A3
:1055C0000E94066860E083E495E00E94066860E05F
:1055D00085E395E00E94066860E08FE195E00E9417
:1055E000066860E08EE095E00E94066860E089EF62
:1055F00094E00E94066861E086EE94E00E940668EE
:10560000A5C68091A7159091A815DC012C912223A5
:1056100021F060E00E94E97499C60E947C4A96C617
:105620000091A7151091A81583E0D12C40E081507E
:10563000E1F0F8019081292F2B7F2134C1F72181DE
:105640002133A9F7913421F0953421F441E002C0CF
:10565000DD24D39498012E5F3F4F89012F5F3F4F88
:10566000D8019C919032C9F3E2CF442369F0E0E184
:10567000F0E384917F01BFEFEB1AFB0A882321F04E
:105680000E940AFFF701F5CFDD2069F0EBE8F6E0B4
:1056900084917F012FEFE21AF20A882321F00E9401
:1056A0000AFFF701F5CFD8018D918D01882309F408
:1056B00013CB0E940AFFF7CF0F94160B47C681E069
:1056C0008093A3078093A20741C683E50E94D43448
:1056D000882319F00E94243402C060E070E08B013E
:1056E000112702301105D4F0EAE9F4E284918F0128
:1056F0000F5F1F4F811103C0EFE8F6E004C00E9466
:105700000AFFF801F3CF84918F010F5F1F4F8823A9
:1057100009F41CC60E940AFFF801F5CF88E40E9434
:10572000D4348823A9F00E9424346A3A71053CF0ED
:105730006530B1E07B072CF064E071E002C06AEAFA
:1057400070E0F801EE0FFF1FEF52FB4F7183608393
:1057500086E40E94D4348823A9F00E942434F801FE
:10576000EE0FFF1FEB52FB4F718360836F3F71059C
:1057700019F014F06FEF70E077FF02C060E070E0A6
:105780007183608382E40E94D434882309F4DEC5E7
:105790000E9424346530710534F0683871052CF0AE
:1057A00067E870E002C065E070E0000F111FF801CB
:1057B000E353FB4F71836083C9C588EC90E00E947E
:1057C00067B68111C3C584E40E948B34882309F431
:1057D00041C00E9454346B017C0111E020E030E0B4
:1057E000A9010F945728811101C010E01093170AE6
:1057F00020E030E0A901C701B6010F9457288823A3
:1058000049F10E945434E0912D0A24E0E29FF00116
:105810001124ED5EF54F608371838283938320E0D2
:1058200030E0A9016091130A7091140A8091150A61
:105830009091160A0F94572881110CC080E090E0D7
:10584000A0EEBFE38093130A9093140AA093150A65
:10585000B093160A0E94E15279C5B4E6EB2EB2E08D
:10586000FB2E0DE519E0D7018D917D010E948B344F
:10587000882349F00E9454340F941D2EF801608350
:105880007183828393830C5F1F4FF9E00D361F07EE
:1058900051F70E94E3F15AC50C5F1F4FF9E00D3537
:1058A0001F0709F453C5D7018D917D010E948B34E8
:1058B000882391F3F9D7F8016083718382839383FE
:1058C000EBCF83E50E94D434882399F0EDD7609321
:1058D000750970937609809377099093780960939E
:1058E0006D0970936E0980936F099093700910E0B1
:1058F00001C011E080E50E94D434882351F0D4D750
:10590000609375097093760980937709909378096D
:1059100010E082E50E94D434882351F0C5D760930B
:10592000710970937209809373099093740910E060
:1059300084E50E94D434882351F0B6D760936D0972
:1059400070936E0980936F0990937009FFC41123BF
:1059500009F4FCC44091750950917609609177096A
:105960007091780987EB96E00E9469EF4091710988
:1059700050917209609173097091740984EB96E0FB
:105980000E9469EF40916D0950916E0960916F0915
:105990007091700981EB96E00E9469EF8AE00E94A5
:1059A0000AFFD4C481E5B7D7882351F00E9418FEBE
:1059B00060938C0470938D0480938E0490938F0475
:1059C00083E5A9D7882349F06FD76093490970937D
:1059D0004A0980934B0990934C0984E59CD788230E
:1059E00049F062D76093450970934609809347094F
:1059F0009093480988E58FD7882349F055D760935D
:105A0000790970937A0980937B0990937C0989E5E1
:105A100082D7882349F048D760937D0970937E0927
:105A200080937F09909380098AE575D78823E9F0F0
:105A30003BD7609381097093820980938309909387
:105A400084092DEC3CEC4CEC5DE30F9457281816C0
:105A500064F0E7ECF6E084918F010F5F1F4F88231D
:105A600021F00E940AFFF801F6CF85E454D788237D
:105A700009F46CC419D760938509709386098093E3
:105A800087099093880962C41F5FF4E0EF0EF11C50
:105A9000133011F40C943122D6018D916D013BD756
:105AA000882391F301D7F701608371838283938305
:105AB000812F0E9427B6E8CF0E942298811146C408
:105AC00003E512E32DE435E03FA32EA3AE014F5FC3
:105AD0005F4F4A017CEAA72E72E3B72E1A01F80144
